{
  "contractName": "HedgeFund",
  "abi": [
    {
      "inputs": [
        {
          "internalType": "address",
          "name": "_storedvalueToken",
          "type": "address"
        },
        {
          "internalType": "address",
          "name": "_peg",
          "type": "address"
        },
        {
          "internalType": "address",
          "name": "_share",
          "type": "address"
        },
        {
          "internalType": "address",
          "name": "_control",
          "type": "address"
        },
        {
          "internalType": "address",
          "name": "_hedge",
          "type": "address"
        },
        {
          "internalType": "uint256",
          "name": "_starttime",
          "type": "uint256"
        }
      ],
      "stateMutability": "nonpayable",
      "type": "constructor"
    },
    {
      "anonymous": false,
      "inputs": [
        {
          "indexed": false,
          "internalType": "address",
          "name": "sender",
          "type": "address"
        },
        {
          "indexed": false,
          "internalType": "uint256",
          "name": "amount",
          "type": "uint256"
        }
      ],
      "name": "DepositIntoHedgeFund",
      "type": "event"
    },
    {
      "anonymous": false,
      "inputs": [
        {
          "indexed": false,
          "internalType": "address",
          "name": "target",
          "type": "address"
        }
      ],
      "name": "Migration",
      "type": "event"
    },
    {
      "anonymous": false,
      "inputs": [
        {
          "indexed": true,
          "internalType": "address",
          "name": "previousOperator",
          "type": "address"
        },
        {
          "indexed": true,
          "internalType": "address",
          "name": "newOperator",
          "type": "address"
        }
      ],
      "name": "OperatorTransferred",
      "type": "event"
    },
    {
      "anonymous": false,
      "inputs": [
        {
          "indexed": false,
          "internalType": "address",
          "name": "sender",
          "type": "address"
        },
        {
          "indexed": false,
          "internalType": "uint256",
          "name": "amount",
          "type": "uint256"
        }
      ],
      "name": "OperatorWithdrawForInvestment",
      "type": "event"
    },
    {
      "anonymous": false,
      "inputs": [
        {
          "indexed": true,
          "internalType": "address",
          "name": "previousOwner",
          "type": "address"
        },
        {
          "indexed": true,
          "internalType": "address",
          "name": "newOwner",
          "type": "address"
        }
      ],
      "name": "OwnershipTransferred",
      "type": "event"
    },
    {
      "anonymous": false,
      "inputs": [
        {
          "indexed": false,
          "internalType": "address",
          "name": "sender",
          "type": "address"
        },
        {
          "indexed": false,
          "internalType": "uint256",
          "name": "amount",
          "type": "uint256"
        }
      ],
      "name": "WithDrawFromHedgeFund",
      "type": "event"
    },
    {
      "inputs": [],
      "name": "control",
      "outputs": [
        {
          "internalType": "address",
          "name": "",
          "type": "address"
        }
      ],
      "stateMutability": "view",
      "type": "function",
      "constant": true
    },
    {
      "inputs": [],
      "name": "growthRate",
      "outputs": [
        {
          "internalType": "uint256",
          "name": "",
          "type": "uint256"
        }
      ],
      "stateMutability": "view",
      "type": "function",
      "constant": true
    },
    {
      "inputs": [],
      "name": "hedge",
      "outputs": [
        {
          "internalType": "address",
          "name": "",
          "type": "address"
        }
      ],
      "stateMutability": "view",
      "type": "function",
      "constant": true
    },
    {
      "inputs": [],
      "name": "isOperator",
      "outputs": [
        {
          "internalType": "bool",
          "name": "",
          "type": "bool"
        }
      ],
      "stateMutability": "view",
      "type": "function",
      "constant": true
    },
    {
      "inputs": [],
      "name": "operator",
      "outputs": [
        {
          "internalType": "address",
          "name": "",
          "type": "address"
        }
      ],
      "stateMutability": "view",
      "type": "function",
      "constant": true
    },
    {
      "inputs": [],
      "name": "owner",
      "outputs": [
        {
          "internalType": "address",
          "name": "",
          "type": "address"
        }
      ],
      "stateMutability": "view",
      "type": "function",
      "constant": true
    },
    {
      "inputs": [],
      "name": "peg",
      "outputs": [
        {
          "internalType": "address",
          "name": "",
          "type": "address"
        }
      ],
      "stateMutability": "view",
      "type": "function",
      "constant": true
    },
    {
      "inputs": [],
      "name": "pegsharePool",
      "outputs": [
        {
          "internalType": "address",
          "name": "",
          "type": "address"
        }
      ],
      "stateMutability": "view",
      "type": "function",
      "constant": true
    },
    {
      "inputs": [],
      "name": "renounceOwnership",
      "outputs": [],
      "stateMutability": "nonpayable",
      "type": "function"
    },
    {
      "inputs": [],
      "name": "share",
      "outputs": [
        {
          "internalType": "address",
          "name": "",
          "type": "address"
        }
      ],
      "stateMutability": "view",
      "type": "function",
      "constant": true
    },
    {
      "inputs": [],
      "name": "stakepegPool",
      "outputs": [
        {
          "internalType": "address",
          "name": "",
          "type": "address"
        }
      ],
      "stateMutability": "view",
      "type": "function",
      "constant": true
    },
    {
      "inputs": [],
      "name": "startingValue",
      "outputs": [
        {
          "internalType": "uint256",
          "name": "",
          "type": "uint256"
        }
      ],
      "stateMutability": "view",
      "type": "function",
      "constant": true
    },
    {
      "inputs": [],
      "name": "starttime",
      "outputs": [
        {
          "internalType": "uint256",
          "name": "",
          "type": "uint256"
        }
      ],
      "stateMutability": "view",
      "type": "function",
      "constant": true
    },
    {
      "inputs": [],
      "name": "storedvalueToken",
      "outputs": [
        {
          "internalType": "address",
          "name": "",
          "type": "address"
        }
      ],
      "stateMutability": "view",
      "type": "function",
      "constant": true
    },
    {
      "inputs": [],
      "name": "theOracle",
      "outputs": [
        {
          "internalType": "address",
          "name": "",
          "type": "address"
        }
      ],
      "stateMutability": "view",
      "type": "function",
      "constant": true
    },
    {
      "inputs": [
        {
          "internalType": "address",
          "name": "newOperator_",
          "type": "address"
        }
      ],
      "name": "transferOperator",
      "outputs": [],
      "stateMutability": "nonpayable",
      "type": "function"
    },
    {
      "inputs": [
        {
          "internalType": "address",
          "name": "newOwner",
          "type": "address"
        }
      ],
      "name": "transferOwnership",
      "outputs": [],
      "stateMutability": "nonpayable",
      "type": "function"
    },
    {
      "inputs": [
        {
          "internalType": "address",
          "name": "_stakepegPool",
          "type": "address"
        },
        {
          "internalType": "address",
          "name": "_pegsharePool",
          "type": "address"
        }
      ],
      "name": "setLPPoolValues",
      "outputs": [],
      "stateMutability": "nonpayable",
      "type": "function"
    },
    {
      "inputs": [
        {
          "internalType": "address",
          "name": "tokentoDeposit",
          "type": "address"
        },
        {
          "internalType": "uint256",
          "name": "amount",
          "type": "uint256"
        }
      ],
      "name": "depositToHedgeFund",
      "outputs": [
        {
          "internalType": "uint256",
          "name": "returnHaifAmount",
          "type": "uint256"
        }
      ],
      "stateMutability": "nonpayable",
      "type": "function"
    },
    {
      "inputs": [
        {
          "internalType": "uint256",
          "name": "amount",
          "type": "uint256"
        }
      ],
      "name": "withdrawFromHedgeFund",
      "outputs": [
        {
          "internalType": "uint256",
          "name": "removedHaifAmount",
          "type": "uint256"
        }
      ],
      "stateMutability": "nonpayable",
      "type": "function"
    },
    {
      "inputs": [],
      "name": "hedgePrice",
      "outputs": [
        {
          "internalType": "uint256",
          "name": "",
          "type": "uint256"
        }
      ],
      "stateMutability": "view",
      "type": "function",
      "constant": true
    },
    {
      "inputs": [],
      "name": "hedgeDaysSinceStart",
      "outputs": [
        {
          "internalType": "uint256",
          "name": "",
          "type": "uint256"
        }
      ],
      "stateMutability": "view",
      "type": "function",
      "constant": true
    },
    {
      "inputs": [],
      "name": "accumGrowth",
      "outputs": [
        {
          "internalType": "uint256",
          "name": "",
          "type": "uint256"
        }
      ],
      "stateMutability": "view",
      "type": "function",
      "constant": true
    },
    {
      "inputs": [
        {
          "internalType": "address",
          "name": "tokenToWithDraw",
          "type": "address"
        },
        {
          "internalType": "address",
          "name": "to",
          "type": "address"
        },
        {
          "internalType": "uint256",
          "name": "amount",
          "type": "uint256"
        }
      ],
      "name": "withdrawForInvestment",
      "outputs": [],
      "stateMutability": "nonpayable",
      "type": "function"
    },
    {
      "inputs": [
        {
          "internalType": "address",
          "name": "newOracle",
          "type": "address"
        }
      ],
      "name": "updateOracle",
      "outputs": [],
      "stateMutability": "nonpayable",
      "type": "function"
    },
    {
      "inputs": [
        {
          "internalType": "address",
          "name": "target",
          "type": "address"
        }
      ],
      "name": "migrate",
      "outputs": [],
      "stateMutability": "nonpayable",
      "type": "function"
    }
  ],
  "bytecode": "0x6080604052681b1ae4d6e2ef500000600b55612729600d556000600e60006101000a81548160ff0219169083151502179055506000600e60016101000a81548160ff0219169083151502179055503480156200005a57600080fd5b50604051620038f8380380620038f8833981810160405260c08110156200008057600080fd5b810190808051906020019092919080519060200190929190805190602001909291908051906020019092919080519060200190929190805190602001909291905050506000620000d56200039860201b60201c565b9050806000806101000a81548173ffffffffffffffffffffffffffffffffffffffff021916908373ffffffffffffffffffffffffffffffffffffffff1602179055508073ffffffffffffffffffffffffffffffffffffffff16600073ffffffffffffffffffffffffffffffffffffffff167f8be0079c531659141344cd1fd0a4f28419497f9722a3daafe3b4186f6b6457e060405160405180910390a350620001836200039860201b60201c565b600160006101000a81548173ffffffffffffffffffffffffffffffffffffffff021916908373ffffffffffffffffffffffffffffffffffffffff160217905550600160009054906101000a900473ffffffffffffffffffffffffffffffffffffffff1673ffffffffffffffffffffffffffffffffffffffff16600073ffffffffffffffffffffffffffffffffffffffff167f74da04524d50c64947f5dd5381ef1a4dca5cba8ed1d816243f9e48aa0b5617ed60405160405180910390a385600360006101000a81548173ffffffffffffffffffffffffffffffffffffffff021916908373ffffffffffffffffffffffffffffffffffffffff16021790555084600460006101000a81548173ffffffffffffffffffffffffffffffffffffffff021916908373ffffffffffffffffffffffffffffffffffffffff16021790555083600560006101000a81548173ffffffffffffffffffffffffffffffffffffffff021916908373ffffffffffffffffffffffffffffffffffffffff16021790555082600660006101000a81548173ffffffffffffffffffffffffffffffffffffffff021916908373ffffffffffffffffffffffffffffffffffffffff16021790555081600960006101000a81548173ffffffffffffffffffffffffffffffffffffffff021916908373ffffffffffffffffffffffffffffffffffffffff16021790555080600c81905550505050505050620003a0565b600033905090565b61354880620003b06000396000f3fe608060405234801561001057600080fd5b506004361061018e5760003560e01c806385b2e0a9116100de578063ad4ae8c311610097578063e1d6a17c11610071578063e1d6a17c146105ef578063f2fde38b14610623578063f7445fca14610667578063fa600055146106cb5761018e565b8063ad4ae8c314610559578063ce5494bb14610577578063d8de6587146105bb5761018e565b806385b2e0a91461041f5780638da588971461043d5780638da5cb5b1461045b578063a61131f21461048f578063a8d5fd65146104f1578063a9b6f7f6146105255761018e565b80634456eda21161014b57806359e671681161012557806359e67168146103315780635b1df87014610365578063715018a6146103a75780637acb4aa7146103b15761018e565b80634456eda2146102a95780634fa303b0146102c9578063570ca735146102fd5761018e565b806303e7272c146101935780631cb44dfc146101b15780631f1cb62b146101f557806329605e77146102295780632bd6806c1461026d5780633872b2821461028b575b600080fd5b61019b6106ff565b6040518082815260200191505060405180910390f35b6101f3600480360360208110156101c757600080fd5b81019080803573ffffffffffffffffffffffffffffffffffffffff169060200190929190505050610775565b005b6101fd61087a565b604051808273ffffffffffffffffffffffffffffffffffffffff16815260200191505060405180910390f35b61026b6004803603602081101561023f57600080fd5b81019080803573ffffffffffffffffffffffffffffffffffffffff1690602001909291905050506108a0565b005b61027561095b565b6040518082815260200191505060405180910390f35b6102936109f9565b6040518082815260200191505060405180910390f35b6102b16109ff565b60405180821515815260200191505060405180910390f35b6102d1610a5e565b604051808273ffffffffffffffffffffffffffffffffffffffff16815260200191505060405180910390f35b610305610a84565b604051808273ffffffffffffffffffffffffffffffffffffffff16815260200191505060405180910390f35b610339610aae565b604051808273ffffffffffffffffffffffffffffffffffffffff16815260200191505060405180910390f35b6103916004803603602081101561037b57600080fd5b8101908080359060200190929190505050610ad4565b6040518082815260200191505060405180910390f35b6103af611273565b005b61041d600480360360608110156103c757600080fd5b81019080803573ffffffffffffffffffffffffffffffffffffffff169060200190929190803573ffffffffffffffffffffffffffffffffffffffff169060200190929190803590602001909291905050506113e0565b005b61042761160f565b6040518082815260200191505060405180910390f35b61044561164c565b6040518082815260200191505060405180910390f35b610463611652565b604051808273ffffffffffffffffffffffffffffffffffffffff16815260200191505060405180910390f35b6104db600480360360408110156104a557600080fd5b81019080803573ffffffffffffffffffffffffffffffffffffffff1690602001909291908035906020019092919050505061167b565b6040518082815260200191505060405180910390f35b6104f961290d565b604051808273ffffffffffffffffffffffffffffffffffffffff16815260200191505060405180910390f35b61052d612933565b604051808273ffffffffffffffffffffffffffffffffffffffff16815260200191505060405180910390f35b610561612959565b6040518082815260200191505060405180910390f35b6105b96004803603602081101561058d57600080fd5b81019080803573ffffffffffffffffffffffffffffffffffffffff16906020019092919050505061295f565b005b6105c3612dcb565b604051808273ffffffffffffffffffffffffffffffffffffffff16815260200191505060405180910390f35b6105f7612df1565b604051808273ffffffffffffffffffffffffffffffffffffffff16815260200191505060405180910390f35b6106656004803603602081101561063957600080fd5b81019080803573ffffffffffffffffffffffffffffffffffffffff169060200190929190505050612e17565b005b6106c96004803603604081101561067d57600080fd5b81019080803573ffffffffffffffffffffffffffffffffffffffff169060200190929190803573ffffffffffffffffffffffffffffffffffffffff169060200190929190505050613009565b005b6106d3613135565b604051808273ffffffffffffffffffffffffffffffffffffffff16815260200191505060405180910390f35b6000806127299050600042600c5411610739576018603c80600c5442038161072357fe5b048161072b57fe5b048161073357fe5b0461073c565b60015b90506000600190505b8181101561076c57612710600d5484028161075c57fe5b0492508080600101915050610745565b50819250505090565b3373ffffffffffffffffffffffffffffffffffffffff16600160009054906101000a900473ffffffffffffffffffffffffffffffffffffffff1673ffffffffffffffffffffffffffffffffffffffff161461081b576040517f08c379a00000000000000000000000000000000000000000000000000000000081526004018080602001828103825260248152602001806134c66024913960400191505060405180910390fd5b80600a60006101000a81548173ffffffffffffffffffffffffffffffffffffffff021916908373ffffffffffffffffffffffffffffffffffffffff1602179055506001600e60016101000a81548160ff02191690831515021790555050565b600460009054906101000a900473ffffffffffffffffffffffffffffffffffffffff1681565b6108a861315b565b73ffffffffffffffffffffffffffffffffffffffff166108c6611652565b73ffffffffffffffffffffffffffffffffffffffff161461094f576040517f08c379a00000000000000000000000000000000000000000000000000000000081526004018080602001828103825260208152602001807f4f776e61626c653a2063616c6c6572206973206e6f7420746865206f776e657281525060200191505060405180910390fd5b61095881613163565b50565b6000806127299050600042600c5411610995576018603c80600c5442038161097f57fe5b048161098757fe5b048161098f57fe5b04610998565b60015b90506000600190505b818110156109c857612710600d548402816109b857fe5b04925080806001019150506109a1565b506109f26127106109e484600b5461328890919063ffffffff16565b61330e90919063ffffffff16565b9250505090565b600b5481565b6000600160009054906101000a900473ffffffffffffffffffffffffffffffffffffffff1673ffffffffffffffffffffffffffffffffffffffff16610a4261315b565b73ffffffffffffffffffffffffffffffffffffffff1614905090565b600a60009054906101000a900473ffffffffffffffffffffffffffffffffffffffff1681565b6000600160009054906101000a900473ffffffffffffffffffffffffffffffffffffffff16905090565b600860009054906101000a900473ffffffffffffffffffffffffffffffffffffffff1681565b6000600e60019054906101000a900460ff16610b58576040517f08c379a000000000000000000000000000000000000000000000000000000000815260040180806020018281038252600e8152602001807f536574206d79206f7261636c652100000000000000000000000000000000000081525060200191505060405180910390fd5b600073ffffffffffffffffffffffffffffffffffffffff16600760009054906101000a900473ffffffffffffffffffffffffffffffffffffffff1673ffffffffffffffffffffffffffffffffffffffff1614158015610c065750600073ffffffffffffffffffffffffffffffffffffffff16600860009054906101000a900473ffffffffffffffffffffffffffffffffffffffff1673ffffffffffffffffffffffffffffffffffffffff1614155b610c78576040517f08c379a00000000000000000000000000000000000000000000000000000000081526004018080602001828103825260108152602001807f53657420746865204c5020506f6f6c730000000000000000000000000000000081525060200191505060405180910390fd5b610c92610c8361095b565b8361328890919063ffffffff16565b610e21600a60009054906101000a900473ffffffffffffffffffffffffffffffffffffffff1673ffffffffffffffffffffffffffffffffffffffff16631cf1260d6040518163ffffffff1660e01b815260040160206040518083038186803b158015610cfd57600080fd5b505afa158015610d11573d6000803e3d6000fd5b505050506040513d6020811015610d2757600080fd5b8101908080519060200190929190505050610e136402540be400600360009054906101000a900473ffffffffffffffffffffffffffffffffffffffff1673ffffffffffffffffffffffffffffffffffffffff166370a08231306040518263ffffffff1660e01b8152600401808273ffffffffffffffffffffffffffffffffffffffff16815260200191505060206040518083038186803b158015610dca57600080fd5b505afa158015610dde573d6000803e3d6000fd5b505050506040513d6020811015610df457600080fd5b810190808051906020019092919050505061328890919063ffffffff16565b61328890919063ffffffff16565b1015610e78576040517f08c379a000000000000000000000000000000000000000000000000000000000815260040180806020018281038252605a815260200180613398605a913960600191505060405180910390fd5b600960009054906101000a900473ffffffffffffffffffffffffffffffffffffffff1673ffffffffffffffffffffffffffffffffffffffff1663dd62ed3e33306040518363ffffffff1660e01b8152600401808373ffffffffffffffffffffffffffffffffffffffff1681526020018273ffffffffffffffffffffffffffffffffffffffff1681526020019250505060206040518083038186803b158015610f1f57600080fd5b505afa158015610f33573d6000803e3d6000fd5b505050506040513d6020811015610f4957600080fd5b8101908080519060200190929190505050821115610fb2576040517f08c379a000000000000000000000000000000000000000000000000000000000815260040180806020018281038252603a81526020018061348c603a913960400191505060405180910390fd5b600960009054906101000a900473ffffffffffffffffffffffffffffffffffffffff1673ffffffffffffffffffffffffffffffffffffffff166379cc679033846040518363ffffffff1660e01b8152600401808373ffffffffffffffffffffffffffffffffffffffff16815260200182815260200192505050600060405180830381600087803b15801561104557600080fd5b505af1158015611059573d6000803e3d6000fd5b5050505060006111446402540be400611136600a60009054906101000a900473ffffffffffffffffffffffffffffffffffffffff1673ffffffffffffffffffffffffffffffffffffffff16631cf1260d6040518163ffffffff1660e01b815260040160206040518083038186803b1580156110d357600080fd5b505afa1580156110e7573d6000803e3d6000fd5b505050506040513d60208110156110fd57600080fd5b810190808051906020019092919050505061112861111961095b565b8861328890919063ffffffff16565b61330e90919063ffffffff16565b61330e90919063ffffffff16565b9050600360009054906101000a900473ffffffffffffffffffffffffffffffffffffffff1673ffffffffffffffffffffffffffffffffffffffff1663a9059cbb33836040518363ffffffff1660e01b8152600401808373ffffffffffffffffffffffffffffffffffffffff16815260200182815260200192505050602060405180830381600087803b1580156111d957600080fd5b505af11580156111ed573d6000803e3d6000fd5b505050506040513d602081101561120357600080fd5b8101908080519060200190929190505050507f67d13a19296d6da21dd07fd31d8733841df2a25052bef52e46a4dbb4908c40d33384604051808373ffffffffffffffffffffffffffffffffffffffff1681526020018281526020019250505060405180910390a182915050919050565b61127b61315b565b73ffffffffffffffffffffffffffffffffffffffff16611299611652565b73ffffffffffffffffffffffffffffffffffffffff1614611322576040517f08c379a00000000000000000000000000000000000000000000000000000000081526004018080602001828103825260208152602001807f4f776e61626c653a2063616c6c6572206973206e6f7420746865206f776e657281525060200191505060405180910390fd5b600073ffffffffffffffffffffffffffffffffffffffff1660008054906101000a900473ffffffffffffffffffffffffffffffffffffffff1673ffffffffffffffffffffffffffffffffffffffff167f8be0079c531659141344cd1fd0a4f28419497f9722a3daafe3b4186f6b6457e060405160405180910390a360008060006101000a81548173ffffffffffffffffffffffffffffffffffffffff021916908373ffffffffffffffffffffffffffffffffffffffff160217905550565b3373ffffffffffffffffffffffffffffffffffffffff16600160009054906101000a900473ffffffffffffffffffffffffffffffffffffffff1673ffffffffffffffffffffffffffffffffffffffff1614611486576040517f08c379a00000000000000000000000000000000000000000000000000000000081526004018080602001828103825260248152602001806134c66024913960400191505060405180910390fd5b600e60019054906101000a900460ff16611508576040517f08c379a000000000000000000000000000000000000000000000000000000000815260040180806020018281038252600e8152602001807f536574206d79206f7261636c652100000000000000000000000000000000000081525060200191505060405180910390fd5b8273ffffffffffffffffffffffffffffffffffffffff1663a9059cbb83836040518363ffffffff1660e01b8152600401808373ffffffffffffffffffffffffffffffffffffffff16815260200182815260200192505050602060405180830381600087803b15801561157957600080fd5b505af115801561158d573d6000803e3d6000fd5b505050506040513d60208110156115a357600080fd5b8101908080519060200190929190505050507fb0aa00bd220ff7460fcf09f104b655e1b09099dc79fa5a75441708d5b0bf48458282604051808373ffffffffffffffffffffffffffffffffffffffff1681526020018281526020019250505060405180910390a1505050565b600042600c5411156116245760009050611649565b6018603c80600c5442038161163557fe5b048161163d57fe5b048161164557fe5b0490505b90565b600c5481565b60008060009054906101000a900473ffffffffffffffffffffffffffffffffffffffff16905090565b6000600e60019054906101000a900460ff166116ff576040517f08c379a000000000000000000000000000000000000000000000000000000000815260040180806020018281038252600e8152602001807f536574206d79206f7261636c652100000000000000000000000000000000000081525060200191505060405180910390fd5b600073ffffffffffffffffffffffffffffffffffffffff16600760009054906101000a900473ffffffffffffffffffffffffffffffffffffffff1673ffffffffffffffffffffffffffffffffffffffff16141580156117ad5750600073ffffffffffffffffffffffffffffffffffffffff16600860009054906101000a900473ffffffffffffffffffffffffffffffffffffffff1673ffffffffffffffffffffffffffffffffffffffff1614155b61181f576040517f08c379a00000000000000000000000000000000000000000000000000000000081526004018080602001828103825260108152602001807f53657420746865204c5020506f6f6c730000000000000000000000000000000081525060200191505060405180910390fd5b60008211611895576040517f08c379a000000000000000000000000000000000000000000000000000000000815260040180806020018281038252601f8152602001807f486564676546756e643a2063616e742074616b6520696e20302066756e64730081525060200191505060405180910390fd5b600360009054906101000a900473ffffffffffffffffffffffffffffffffffffffff1673ffffffffffffffffffffffffffffffffffffffff168373ffffffffffffffffffffffffffffffffffffffff16148061193e5750600460009054906101000a900473ffffffffffffffffffffffffffffffffffffffff1673ffffffffffffffffffffffffffffffffffffffff168373ffffffffffffffffffffffffffffffffffffffff16145b806119965750600560009054906101000a900473ffffffffffffffffffffffffffffffffffffffff1673ffffffffffffffffffffffffffffffffffffffff168373ffffffffffffffffffffffffffffffffffffffff16145b806119ee5750600660009054906101000a900473ffffffffffffffffffffffffffffffffffffffff1673ffffffffffffffffffffffffffffffffffffffff168373ffffffffffffffffffffffffffffffffffffffff16145b80611a465750600760009054906101000a900473ffffffffffffffffffffffffffffffffffffffff1673ffffffffffffffffffffffffffffffffffffffff168373ffffffffffffffffffffffffffffffffffffffff16145b80611a9e5750600860009054906101000a900473ffffffffffffffffffffffffffffffffffffffff1673ffffffffffffffffffffffffffffffffffffffff168373ffffffffffffffffffffffffffffffffffffffff16145b611af3576040517f08c379a00000000000000000000000000000000000000000000000000000000081526004018080602001828103825260298152602001806134ea6029913960400191505060405180910390fd5b8273ffffffffffffffffffffffffffffffffffffffff1663dd62ed3e33306040518363ffffffff1660e01b8152600401808373ffffffffffffffffffffffffffffffffffffffff1681526020018273ffffffffffffffffffffffffffffffffffffffff1681526020019250505060206040518083038186803b158015611b7857600080fd5b505afa158015611b8c573d6000803e3d6000fd5b505050506040513d6020811015611ba257600080fd5b8101908080519060200190929190505050821115611c0b576040517f08c379a00000000000000000000000000000000000000000000000000000000081526004018080602001828103825260268152602001806134186026913960400191505060405180910390fd5b8273ffffffffffffffffffffffffffffffffffffffff166323b872dd3330856040518463ffffffff1660e01b8152600401808473ffffffffffffffffffffffffffffffffffffffff1681526020018373ffffffffffffffffffffffffffffffffffffffff1681526020018281526020019350505050602060405180830381600087803b158015611c9a57600080fd5b505af1158015611cae573d6000803e3d6000fd5b505050506040513d6020811015611cc457600080fd5b8101908080519060200190929190505050506000600360009054906101000a900473ffffffffffffffffffffffffffffffffffffffff1673ffffffffffffffffffffffffffffffffffffffff168473ffffffffffffffffffffffffffffffffffffffff161415611e3b57611e34611d3961095b565b611e26600a60009054906101000a900473ffffffffffffffffffffffffffffffffffffffff1673ffffffffffffffffffffffffffffffffffffffff1663b95ed06f886040518263ffffffff1660e01b8152600401808273ffffffffffffffffffffffffffffffffffffffff16815260200191505060206040518083038186803b158015611dc557600080fd5b505afa158015611dd9573d6000803e3d6000fd5b505050506040513d6020811015611def57600080fd5b8101908080519060200190929190505050611e186402540be4008861328890919063ffffffff16565b61328890919063ffffffff16565b61330e90919063ffffffff16565b9050612710565b600460009054906101000a900473ffffffffffffffffffffffffffffffffffffffff1673ffffffffffffffffffffffffffffffffffffffff168473ffffffffffffffffffffffffffffffffffffffff161480611ee45750600560009054906101000a900473ffffffffffffffffffffffffffffffffffffffff1673ffffffffffffffffffffffffffffffffffffffff168473ffffffffffffffffffffffffffffffffffffffff16145b80611f3c5750600660009054906101000a900473ffffffffffffffffffffffffffffffffffffffff1673ffffffffffffffffffffffffffffffffffffffff168473ffffffffffffffffffffffffffffffffffffffff16145b1561203757612030611f4c61095b565b612022600a60009054906101000a900473ffffffffffffffffffffffffffffffffffffffff1673ffffffffffffffffffffffffffffffffffffffff1663b95ed06f886040518263ffffffff1660e01b8152600401808273ffffffffffffffffffffffffffffffffffffffff16815260200191505060206040518083038186803b158015611fd857600080fd5b505afa158015611fec573d6000803e3d6000fd5b505050506040513d602081101561200257600080fd5b81019080805190602001909291905050508661328890919063ffffffff16565b61330e90919063ffffffff16565b905061270f565b600760009054906101000a900473ffffffffffffffffffffffffffffffffffffffff1673ffffffffffffffffffffffffffffffffffffffff168473ffffffffffffffffffffffffffffffffffffffff1614806120e05750600860009054906101000a900473ffffffffffffffffffffffffffffffffffffffff1673ffffffffffffffffffffffffffffffffffffffff168473ffffffffffffffffffffffffffffffffffffffff16145b1561270e5760008490506000808273ffffffffffffffffffffffffffffffffffffffff16630902f1ac6040518163ffffffff1660e01b815260040160606040518083038186803b15801561213357600080fd5b505afa158015612147573d6000803e3d6000fd5b505050506040513d606081101561215d57600080fd5b81019080805190602001909291908051906020019092919080519060200190929190505050826dffffffffffffffffffffffffffff169250816dffffffffffffffffffffffffffff169150508092508193505050600360009054906101000a900473ffffffffffffffffffffffffffffffffffffffff1673ffffffffffffffffffffffffffffffffffffffff168373ffffffffffffffffffffffffffffffffffffffff16630dfe16816040518163ffffffff1660e01b815260040160206040518083038186803b15801561223057600080fd5b505afa158015612244573d6000803e3d6000fd5b505050506040513d602081101561225a57600080fd5b810190808051906020019092919050505073ffffffffffffffffffffffffffffffffffffffff1614156122a65761229f6402540be4008361328890919063ffffffff16565b9150612398565b600360009054906101000a900473ffffffffffffffffffffffffffffffffffffffff1673ffffffffffffffffffffffffffffffffffffffff168373ffffffffffffffffffffffffffffffffffffffff1663d21220a76040518163ffffffff1660e01b815260040160206040518083038186803b15801561232557600080fd5b505afa158015612339573d6000803e3d6000fd5b505050506040513d602081101561234f57600080fd5b810190808051906020019092919050505073ffffffffffffffffffffffffffffffffffffffff161415612397576123946402540be4008261328890919063ffffffff16565b90505b5b60006126d98473ffffffffffffffffffffffffffffffffffffffff166318160ddd6040518163ffffffff1660e01b815260040160206040518083038186803b1580156123e357600080fd5b505afa1580156123f7573d6000803e3d6000fd5b505050506040513d602081101561240d57600080fd5b8101908080519060200190929190505050612574600a60009054906101000a900473ffffffffffffffffffffffffffffffffffffffff1673ffffffffffffffffffffffffffffffffffffffff1663b95ed06f8873ffffffffffffffffffffffffffffffffffffffff1663d21220a76040518163ffffffff1660e01b815260040160206040518083038186803b1580156124a557600080fd5b505afa1580156124b9573d6000803e3d6000fd5b505050506040513d60208110156124cf57600080fd5b81019080805190602001909291905050506040518263ffffffff1660e01b8152600401808273ffffffffffffffffffffffffffffffffffffffff16815260200191505060206040518083038186803b15801561252a57600080fd5b505afa15801561253e573d6000803e3d6000fd5b505050506040513d602081101561255457600080fd5b81019080805190602001909291905050508561328890919063ffffffff16565b6126ca600a60009054906101000a900473ffffffffffffffffffffffffffffffffffffffff1673ffffffffffffffffffffffffffffffffffffffff1663b95ed06f8973ffffffffffffffffffffffffffffffffffffffff16630dfe16816040518163ffffffff1660e01b815260040160206040518083038186803b1580156125fb57600080fd5b505afa15801561260f573d6000803e3d6000fd5b505050506040513d602081101561262557600080fd5b81019080805190602001909291905050506040518263ffffffff1660e01b8152600401808273ffffffffffffffffffffffffffffffffffffffff16815260200191505060206040518083038186803b15801561268057600080fd5b505afa158015612694573d6000803e3d6000fd5b505050506040513d60208110156126aa57600080fd5b81019080805190602001909291905050508761328890919063ffffffff16565b0161330e90919063ffffffff16565b90506127076126e661095b565b6126f9838a61328890919063ffffffff16565b61330e90919063ffffffff16565b9450505050505b5b5b600960009054906101000a900473ffffffffffffffffffffffffffffffffffffffff1673ffffffffffffffffffffffffffffffffffffffff166340c10f1930836040518363ffffffff1660e01b8152600401808373ffffffffffffffffffffffffffffffffffffffff16815260200182815260200192505050602060405180830381600087803b1580156127a357600080fd5b505af11580156127b7573d6000803e3d6000fd5b505050506040513d60208110156127cd57600080fd5b810190808051906020019092919050505050600960009054906101000a900473ffffffffffffffffffffffffffffffffffffffff1673ffffffffffffffffffffffffffffffffffffffff1663a9059cbb33836040518363ffffffff1660e01b8152600401808373ffffffffffffffffffffffffffffffffffffffff16815260200182815260200192505050602060405180830381600087803b15801561287257600080fd5b505af1158015612886573d6000803e3d6000fd5b505050506040513d602081101561289c57600080fd5b8101908080519060200190929190505050507fbdda39567f26a8eed2e5c9af46bdbc6431ccce57edf2475092ea1b82b29cd1503384604051808373ffffffffffffffffffffffffffffffffffffffff1681526020018281526020019250505060405180910390a18091505092915050565b600560009054906101000a900473ffffffffffffffffffffffffffffffffffffffff1681565b600760009054906101000a900473ffffffffffffffffffffffffffffffffffffffff1681565b600d5481565b3373ffffffffffffffffffffffffffffffffffffffff16600160009054906101000a900473ffffffffffffffffffffffffffffffffffffffff1673ffffffffffffffffffffffffffffffffffffffff1614612a05576040517f08c379a00000000000000000000000000000000000000000000000000000000081526004018080602001828103825260248152602001806134c66024913960400191505060405180910390fd5b600e60009054906101000a900460ff1615612a88576040517f08c379a00000000000000000000000000000000000000000000000000000000081526004018080602001828103825260138152602001807f486564676546756e643a206d696772617465640000000000000000000000000081525060200191505060405180910390fd5b600960009054906101000a900473ffffffffffffffffffffffffffffffffffffffff1673ffffffffffffffffffffffffffffffffffffffff166329605e77826040518263ffffffff1660e01b8152600401808273ffffffffffffffffffffffffffffffffffffffff168152602001915050600060405180830381600087803b158015612b1357600080fd5b505af1158015612b27573d6000803e3d6000fd5b50505050600960009054906101000a900473ffffffffffffffffffffffffffffffffffffffff1673ffffffffffffffffffffffffffffffffffffffff1663f2fde38b826040518263ffffffff1660e01b8152600401808273ffffffffffffffffffffffffffffffffffffffff168152602001915050600060405180830381600087803b158015612bb657600080fd5b505af1158015612bca573d6000803e3d6000fd5b50505050600960009054906101000a900473ffffffffffffffffffffffffffffffffffffffff1673ffffffffffffffffffffffffffffffffffffffff1663a9059cbb82600960009054906101000a900473ffffffffffffffffffffffffffffffffffffffff1673ffffffffffffffffffffffffffffffffffffffff166370a08231306040518263ffffffff1660e01b8152600401808273ffffffffffffffffffffffffffffffffffffffff16815260200191505060206040518083038186803b158015612c9657600080fd5b505afa158015612caa573d6000803e3d6000fd5b505050506040513d6020811015612cc057600080fd5b81019080805190602001909291905050506040518363ffffffff1660e01b8152600401808373ffffffffffffffffffffffffffffffffffffffff16815260200182815260200192505050602060405180830381600087803b158015612d2457600080fd5b505af1158015612d38573d6000803e3d6000fd5b505050506040513d6020811015612d4e57600080fd5b8101908080519060200190929190505050506001600e60006101000a81548160ff0219169083151502179055507f0caca70b66aed56b0630989a049110023c5a3f37e0ea4b6ce96fc747663f3ebc81604051808273ffffffffffffffffffffffffffffffffffffffff16815260200191505060405180910390a150565b600660009054906101000a900473ffffffffffffffffffffffffffffffffffffffff1681565b600960009054906101000a900473ffffffffffffffffffffffffffffffffffffffff1681565b612e1f61315b565b73ffffffffffffffffffffffffffffffffffffffff16612e3d611652565b73ffffffffffffffffffffffffffffffffffffffff1614612ec6576040517f08c379a00000000000000000000000000000000000000000000000000000000081526004018080602001828103825260208152602001807f4f776e61626c653a2063616c6c6572206973206e6f7420746865206f776e657281525060200191505060405180910390fd5b600073ffffffffffffffffffffffffffffffffffffffff168173ffffffffffffffffffffffffffffffffffffffff161415612f4c576040517f08c379a00000000000000000000000000000000000000000000000000000000081526004018080602001828103825260268152602001806133f26026913960400191505060405180910390fd5b8073ffffffffffffffffffffffffffffffffffffffff1660008054906101000a900473ffffffffffffffffffffffffffffffffffffffff1673ffffffffffffffffffffffffffffffffffffffff167f8be0079c531659141344cd1fd0a4f28419497f9722a3daafe3b4186f6b6457e060405160405180910390a3806000806101000a81548173ffffffffffffffffffffffffffffffffffffffff021916908373ffffffffffffffffffffffffffffffffffffffff16021790555050565b3373ffffffffffffffffffffffffffffffffffffffff16600160009054906101000a900473ffffffffffffffffffffffffffffffffffffffff1673ffffffffffffffffffffffffffffffffffffffff16146130af576040517f08c379a00000000000000000000000000000000000000000000000000000000081526004018080602001828103825260248152602001806134c66024913960400191505060405180910390fd5b81600760006101000a81548173ffffffffffffffffffffffffffffffffffffffff021916908373ffffffffffffffffffffffffffffffffffffffff16021790555080600860006101000a81548173ffffffffffffffffffffffffffffffffffffffff021916908373ffffffffffffffffffffffffffffffffffffffff1602179055505050565b600360009054906101000a900473ffffffffffffffffffffffffffffffffffffffff1681565b600033905090565b600073ffffffffffffffffffffffffffffffffffffffff168173ffffffffffffffffffffffffffffffffffffffff1614156131e9576040517f08c379a000000000000000000000000000000000000000000000000000000000815260040180806020018281038252602d81526020018061343e602d913960400191505060405180910390fd5b8073ffffffffffffffffffffffffffffffffffffffff16600073ffffffffffffffffffffffffffffffffffffffff167f74da04524d50c64947f5dd5381ef1a4dca5cba8ed1d816243f9e48aa0b5617ed60405160405180910390a380600160006101000a81548173ffffffffffffffffffffffffffffffffffffffff021916908373ffffffffffffffffffffffffffffffffffffffff16021790555050565b60008083141561329b5760009050613308565b60008284029050828482816132ac57fe5b0414613303576040517f08c379a000000000000000000000000000000000000000000000000000000000815260040180806020018281038252602181526020018061346b6021913960400191505060405180910390fd5b809150505b92915050565b6000808211613385576040517f08c379a000000000000000000000000000000000000000000000000000000000815260040180806020018281038252601a8152602001807f536166654d6174683a206469766973696f6e206279207a65726f00000000000081525060200191505060405180910390fd5b81838161338e57fe5b0490509291505056fe486564676546756e643a20576520646f6e74206861766520656e6f756768207762746320746f2070617920796f75206f75742063757272656e746c7920706c6561736520636865636b206261636b20696e20323420686f7572734f776e61626c653a206e6577206f776e657220697320746865207a65726f2061646472657373486564676546756e643a206e6f7420617070726f76656420746f207370656e6420746f6b656e6f70657261746f723a207a65726f206164647265737320676976656e20666f72206e6577206f70657261746f72536166654d6174683a206d756c7469706c69636174696f6e206f766572666c6f77486564676546756e643a20596f75206d75737420617070726f766520746865206861696620616d6f756e74206265666f72652063616c6c696e676f70657261746f723a2063616c6c6572206973206e6f7420746865206f70657261746f72486564676546756e643a2053656e64206120746f6b656e2077652063616e20776f726b207769746821a264697066735822122055dcd36e9de95f2860f75680759b86f11b4167125c60eb163496a5570bff265364736f6c63430007000033",
  "immutableReferences": {},
  "source": "// SPDX-License-Identifier: MIT\r\n/*\r\n* The Control File for HedgeFund like activities.\r\n* PRETNED THIS HAS NOTHING TO DO WITH LiftDAO or StableCoin but is the first idea to be generated\r\n* And produce a return..\r\n*\r\n* Individuals will Stake assets with the hedge fund for it to investe as its sees fit.\r\n* First use case will be the IdeaFund - it will stake some percentage of the IdeaFund\r\n* Into the hedge fund so that we can invest it in other projects and collect a return.\r\n* \r\n* I suggest the math on the hedgefund be the following - it pays a .25% (variable controlled)\r\n* return every day, it has a 24 hour epoch that takes funds (older than 24 hours) * 1.0025 for the increase\r\n* We are not including funds staked in the last 24 hours because they couldnt have been deployed yet\r\n*\r\n* This HedgeFund will issue HAIF tokens back to the stakers for redemption based on fund current value.\r\n* Those tokens will be stored by the stakers wallet (individual or IdeaFund) - so that the value \r\n* of the HAIF staking is represented in the local wallet (allows us to move money into an investment account\r\n* and still show value/growth in the IdeaFund)\r\n*\r\n* the upside of the .25% guaranteed daily increase is that the fundmanagers (US), get to take the spread between \r\n* the guaranteed .25% daily, and the actual return (presumption that it is positive!)\r\n*\r\n* three values exist in the tracking of this \r\n* public Total Staked Value growth .25% every day\r\n* private Total Value (fund real growth/decline)\r\n* private Hedge Manager Value (what we can collect for investing the money)\r\n*/\r\n\r\npragma solidity >=0.6.0;\r\n\r\n//Contract deployed by LK Tech Club Incubator 2021 dba Lift.Kitchen - 4/24/2021\r\n\r\nimport '@openzeppelin/contracts/math/Math.sol';\r\nimport '@openzeppelin/contracts/token/ERC20/IERC20.sol';\r\nimport '@openzeppelin/contracts/token/ERC20/SafeERC20.sol';\r\nimport '@openzeppelin/contracts/utils/ReentrancyGuard.sol';\r\n\r\nimport './interfaces/IUniswapV2Pair.sol';\r\nimport './interfaces/IUniswapV2Router02.sol';\r\nimport './interfaces/IOracle.sol';\r\nimport './interfaces/IBasisAsset.sol';\r\nimport './interfaces/ISimpleERCFund.sol';\r\n\r\nimport './lib/UniswapV2Library.sol';\r\nimport './lib/Babylonian.sol';\r\nimport './lib/FixedPoint.sol';\r\n\r\nimport './utils/Operator.sol';\r\nimport './utils/ContractGuard.sol';\r\n\r\ncontract HedgeFund is Operator, ContractGuard {\r\n    using SafeERC20 for IERC20;\r\n    using Address for address;\r\n    using SafeMath for uint256;\r\n\r\n    address public storedvalueToken; // wbtc\r\n    address public peg; // lfbtc\r\n    address public share; // lift\r\n    address public control; // ctrl\r\n    address public stakepegPool; // wBTC-lfBTC-Pair\r\n    address public pegsharePool; // lfBTC-LIFT-Pair\r\n    address public hedge; // Operator of the HAIF token\r\n    address public theOracle;\r\n    \r\n    //validate this is 500\r\n    uint public startingValue = 500e18;\r\n    uint256 public starttime;\r\n\r\n    //mapping(address => uint256) private _haifBalances;\r\n\r\n    //validate this is .25% (1.0025)\r\n    uint public growthRate = 10025;\r\n\r\n    bool migrated = false;\r\n    bool _hasOracle = false;\r\n    \r\n    constructor(\r\n        address _storedvalueToken,\r\n        address _peg,\r\n        address _share,\r\n        address _control,\r\n        address _hedge,\r\n        uint256 _starttime\r\n    ) public {\r\n        storedvalueToken = _storedvalueToken;\r\n        peg = _peg;\r\n        share = _share;\r\n        control = _control;\r\n        hedge = _hedge;\r\n        starttime = _starttime;\r\n    }\r\n\r\n    \r\n    modifier hasOracle {\r\n        require(_hasOracle, 'Set my oracle!');\r\n        _;\r\n    }\r\n\r\n    modifier hasLPPoolValues {\r\n        require(stakepegPool != address(0) && pegsharePool != address(0), 'Set the LP Pools');\r\n        _;\r\n    }\r\n\r\n    function setLPPoolValues(address _stakepegPool, address _pegsharePool) external onlyOperator {\r\n        stakepegPool = _stakepegPool;\r\n        pegsharePool = _pegsharePool;   \r\n    }\r\n\r\n    // need to allow any address to deposit any token at any time.\r\n    // need to track balances of deposits and reqeusts for withdraw\r\n    // mint and burn haif based on withdraw / deposit requests\r\n    // haif is a fixed $500 value on genesis day and increases in value .25% per day\r\n    // when a deposit is made haif is returned based on VALUE divided by TOMORROWS VALUE\r\n\r\n    // reinvestment into strategies will be always changing.  Good use of proxy?\r\n    // some strategies will involve migrating funds to personal wallets for investment and return (lots of trust)\r\n\r\n    function depositToHedgeFund(address tokentoDeposit, uint256 amount) external hasOracle hasLPPoolValues returns (uint256 returnHaifAmount) {\r\n            //calculate value of token... \r\n            require(amount > 0, 'HedgeFund: cant take in 0 funds');\r\n            require(tokentoDeposit == storedvalueToken ||\r\n                    tokentoDeposit == peg ||\r\n                    tokentoDeposit == share ||\r\n                    tokentoDeposit == control ||\r\n                    tokentoDeposit == stakepegPool ||\r\n                    tokentoDeposit == pegsharePool, \r\n                    'HedgeFund: Send a token we can work with!');\r\n            require(amount <= IERC20(tokentoDeposit).allowance(msg.sender, address(this)), 'HedgeFund: not approved to spend token');\r\n\r\n            IERC20(tokentoDeposit).transferFrom(msg.sender, address(this), amount);\r\n            uint256 mintedHedge = 0;\r\n\r\n            if(tokentoDeposit == storedvalueToken) {\r\n                mintedHedge = amount.mul(1e10).mul(IOracle(theOracle).priceOf(tokentoDeposit)).div(hedgePrice());\r\n            } else if(tokentoDeposit == peg ||\r\n                tokentoDeposit == share ||\r\n                tokentoDeposit == control) {\r\n                mintedHedge = amount.mul(IOracle(theOracle).priceOf(tokentoDeposit)).div(hedgePrice());\r\n            } else if (tokentoDeposit == stakepegPool || tokentoDeposit == pegsharePool) {\r\n                IUniswapV2Pair pair = IUniswapV2Pair(tokentoDeposit);\r\n                uint256 token0Supply = 0;\r\n                uint256 token1Supply = 0;\r\n\r\n                (token0Supply, token1Supply, ) = pair.getReserves();\r\n\r\n                // 8 to 18 converter\r\n                if (pair.token0() == storedvalueToken) {\r\n                    token0Supply = token0Supply.mul(1e10);\r\n                } else if (pair.token1() == storedvalueToken) {\r\n                    token1Supply = token1Supply.mul(1e10);\r\n                }\r\n\r\n                //pair.token1().decimals()\r\n                // this should arrive at the value of the pairing...\r\n                // when testing this in rinkeby we need to see if it discounts the lfBTC price to 0 and only returns tlv of wbtc\r\n                uint256 tokenPrice = (uint256(token0Supply).mul(IOracle(theOracle).priceOf(pair.token0())) + uint256(token1Supply).mul(IOracle(theOracle).priceOf(pair.token1()))).div(pair.totalSupply());\r\n\r\n                mintedHedge = amount.mul(tokenPrice).div(hedgePrice());\r\n            }\r\n            \r\n            //_haifBalances[msg.sender] += mintedHedge;\r\n            IBasisAsset(hedge).mint(address(this), mintedHedge);\r\n            IERC20(hedge).transfer(msg.sender, mintedHedge);\r\n\r\n            emit DepositIntoHedgeFund(msg.sender, amount);\r\n\r\n            return uint256(mintedHedge);\r\n    }\r\n\r\n    // this will only return availble wBTC - and only to people with HAIF balances.\r\n    function withdrawFromHedgeFund(uint256 amount) external hasOracle hasLPPoolValues returns (uint256 removedHaifAmount) {\r\n\r\n            //require(_haifBalances[msg.sender] >= amount, 'HedgeFund: You dont have this amount invested');\r\n            require(IERC20(storedvalueToken).balanceOf(address(this)).mul(1e10).mul(IOracle(theOracle).wbtcPriceOne()) >= amount.mul(hedgePrice()), 'HedgeFund: We dont have enough wbtc to pay you out currently please check back in 24 hours');\r\n            require(amount <= IERC20(hedge).allowance(msg.sender, address(this)), 'HedgeFund: You must approve the haif amount before calling');\r\n\r\n            //_haifBalances[msg.sender] -= amount;\r\n            IBasisAsset(hedge).burnFrom(msg.sender,amount);\r\n\r\n            uint256 transferAmount = amount.mul(hedgePrice()).div(IOracle(theOracle).wbtcPriceOne()).div(1e10);\r\n            IERC20(storedvalueToken).transfer(msg.sender, transferAmount);\r\n            \r\n            emit WithDrawFromHedgeFund(msg.sender, amount);\r\n\r\n            return amount;\r\n    }\r\n\r\n    function hedgePrice() public view returns (uint256) {\r\n        uint256 accumGrowth = 10025;\r\n        uint daysSinceStart = starttime > block.timestamp ? 1 : (block.timestamp - starttime) / 60 / 60 / 24;\r\n        \r\n        for (uint256 i = 1; i < daysSinceStart; i++) \r\n            accumGrowth = accumGrowth*growthRate/10000;\r\n\r\n        return startingValue.mul(accumGrowth).div(1e4);\r\n    }\r\n\r\n    function hedgeDaysSinceStart() public view returns (uint256) {\r\n        if (starttime > block.timestamp)\r\n            return 0;\r\n        return (block.timestamp - starttime) / 60 / 60 / 24;\r\n    }\r\n\r\n    function accumGrowth() public view returns (uint256) {\r\n        uint256 accumGrowth = 10025;\r\n        uint daysSinceStart = starttime > block.timestamp ? 1 : (block.timestamp - starttime) / 60 / 60 / 24;\r\n\r\n        for (uint256 i = 1; i < daysSinceStart; i++) \r\n            accumGrowth = accumGrowth*growthRate/10000;\r\n\r\n        return accumGrowth;\r\n    }\r\n\r\n    // YES this 100% can rug pull the IdeaFund just like every other stablization fund via with a Migrate Function\r\n    function withdrawForInvestment(address tokenToWithDraw, address to, uint256 amount) public onlyOperator hasOracle\r\n    {\r\n        // allows the operator to pull funds and \r\n        // - invest them in assets \r\n        // - convert them to wbtc for withdrawl requests\r\n        IERC20(tokenToWithDraw).transfer(to, amount);\r\n\r\n        emit OperatorWithdrawForInvestment(to, amount);\r\n    }\r\n\r\n    function updateOracle(address newOracle) public onlyOperator {\r\n        theOracle = newOracle;\r\n        _hasOracle = true;\r\n    }\r\n\r\n    function migrate(address target) public onlyOperator {\r\n        require(!migrated, 'HedgeFund: migrated');\r\n\r\n        // HAIF\r\n        Operator(hedge).transferOperator(target);\r\n        Operator(hedge).transferOwnership(target);\r\n        IERC20(hedge).transfer(target, IERC20(hedge).balanceOf(address(this)));\r\n\r\n        migrated = true;\r\n        emit Migration(target);\r\n    }\r\n\r\n    // THIS CONTRACT SHOULD EVOLVE OVER TIME TO NOT REQUIRE THE ABOVE.  \r\n    // It must be able to be self managing / investing and growing without moving to a private wallet\r\n\r\n    event DepositIntoHedgeFund(address sender, uint256 amount);\r\n    event WithDrawFromHedgeFund(address sender, uint256 amount);\r\n    event OperatorWithdrawForInvestment(address sender, uint256 amount);\r\n    event Migration(address target);\r\n}",
  "sourcePath": "C:/Coding/LIFT-SingleStake/contracts/HedgeFund.sol",
  "compiler": {
    "name": "solc",
    "version": "0.7.0+commit.9e61f92b.Emscripten.clang"
  },
  "schemaVersion": "3.4.0",
  "updatedAt": "2021-04-30T01:25:19.358Z",
  "networkType": "ethereum",
  "devdoc": {
    "kind": "dev",
    "methods": {
      "owner()": {
        "details": "Returns the address of the current owner."
      },
      "renounceOwnership()": {
        "details": "Leaves the contract without owner. It will not be possible to call `onlyOwner` functions anymore. Can only be called by the current owner. NOTE: Renouncing ownership will leave the contract without an owner, thereby removing any functionality that is only available to the owner."
      },
      "transferOwnership(address)": {
        "details": "Transfers ownership of the contract to a new account (`newOwner`). Can only be called by the current owner."
      }
    },
    "version": 1
  },
  "userdoc": {
    "kind": "user",
    "methods": {},
    "version": 1
  }
}