{
  "contractName": "KBTCWrapper",
  "abi": [
    {
      "anonymous": false,
      "inputs": [
        {
          "indexed": true,
          "internalType": "address",
          "name": "previousOperator",
          "type": "address"
        },
        {
          "indexed": true,
          "internalType": "address",
          "name": "newOperator",
          "type": "address"
        }
      ],
      "name": "OperatorTransferred",
      "type": "event"
    },
    {
      "anonymous": false,
      "inputs": [
        {
          "indexed": true,
          "internalType": "address",
          "name": "previousOwner",
          "type": "address"
        },
        {
          "indexed": true,
          "internalType": "address",
          "name": "newOwner",
          "type": "address"
        }
      ],
      "name": "OwnershipTransferred",
      "type": "event"
    },
    {
      "inputs": [],
      "name": "KBTC",
      "outputs": [
        {
          "internalType": "contract IERC20",
          "name": "",
          "type": "address"
        }
      ],
      "stateMutability": "view",
      "type": "function"
    },
    {
      "inputs": [],
      "name": "isOperator",
      "outputs": [
        {
          "internalType": "bool",
          "name": "",
          "type": "bool"
        }
      ],
      "stateMutability": "view",
      "type": "function"
    },
    {
      "inputs": [],
      "name": "operator",
      "outputs": [
        {
          "internalType": "address",
          "name": "",
          "type": "address"
        }
      ],
      "stateMutability": "view",
      "type": "function"
    },
    {
      "inputs": [],
      "name": "owner",
      "outputs": [
        {
          "internalType": "address",
          "name": "",
          "type": "address"
        }
      ],
      "stateMutability": "view",
      "type": "function"
    },
    {
      "inputs": [],
      "name": "renounceOwnership",
      "outputs": [],
      "stateMutability": "nonpayable",
      "type": "function"
    },
    {
      "inputs": [
        {
          "internalType": "address",
          "name": "newOperator_",
          "type": "address"
        }
      ],
      "name": "transferOperator",
      "outputs": [],
      "stateMutability": "nonpayable",
      "type": "function"
    },
    {
      "inputs": [
        {
          "internalType": "address",
          "name": "newOwner",
          "type": "address"
        }
      ],
      "name": "transferOwnership",
      "outputs": [],
      "stateMutability": "nonpayable",
      "type": "function"
    },
    {
      "inputs": [],
      "name": "totalSupply",
      "outputs": [
        {
          "internalType": "uint256",
          "name": "",
          "type": "uint256"
        }
      ],
      "stateMutability": "view",
      "type": "function"
    },
    {
      "inputs": [
        {
          "internalType": "address",
          "name": "account",
          "type": "address"
        }
      ],
      "name": "balanceOf",
      "outputs": [
        {
          "internalType": "uint256",
          "name": "",
          "type": "uint256"
        }
      ],
      "stateMutability": "view",
      "type": "function"
    },
    {
      "inputs": [
        {
          "internalType": "uint256",
          "name": "amount",
          "type": "uint256"
        }
      ],
      "name": "stake",
      "outputs": [],
      "stateMutability": "nonpayable",
      "type": "function"
    },
    {
      "inputs": [
        {
          "internalType": "uint256",
          "name": "amount",
          "type": "uint256"
        }
      ],
      "name": "withdraw",
      "outputs": [],
      "stateMutability": "nonpayable",
      "type": "function"
    }
  ],
  "bytecode": "0x608060405234801561001057600080fd5b50600061002161018f60201b60201c565b9050806000806101000a81548173ffffffffffffffffffffffffffffffffffffffff021916908373ffffffffffffffffffffffffffffffffffffffff1602179055508073ffffffffffffffffffffffffffffffffffffffff16600073ffffffffffffffffffffffffffffffffffffffff167f8be0079c531659141344cd1fd0a4f28419497f9722a3daafe3b4186f6b6457e060405160405180910390a3506100cd61018f60201b60201c565b600160006101000a81548173ffffffffffffffffffffffffffffffffffffffff021916908373ffffffffffffffffffffffffffffffffffffffff160217905550600160009054906101000a900473ffffffffffffffffffffffffffffffffffffffff1673ffffffffffffffffffffffffffffffffffffffff16600073ffffffffffffffffffffffffffffffffffffffff167f74da04524d50c64947f5dd5381ef1a4dca5cba8ed1d816243f9e48aa0b5617ed60405160405180910390a3610197565b600033905090565b611218806101a66000396000f3fe608060405234801561001057600080fd5b50600436106100a95760003560e01c8063570ca73511610071578063570ca7351461019257806370a08231146101c6578063715018a61461021e5780638da5cb5b14610228578063a694fc3a1461025c578063f2fde38b1461028a576100a9565b806318160ddd146100ae57806319550da4146100cc57806329605e77146101005780632e1a7d4d146101445780634456eda214610172575b600080fd5b6100b66102ce565b6040518082815260200191505060405180910390f35b6100d46102d8565b604051808273ffffffffffffffffffffffffffffffffffffffff16815260200191505060405180910390f35b6101426004803603602081101561011657600080fd5b81019080803573ffffffffffffffffffffffffffffffffffffffff1690602001909291905050506102fe565b005b6101706004803603602081101561015a57600080fd5b81019080803590602001909291905050506103b9565b005b61017a6104b9565b60405180821515815260200191505060405180910390f35b61019a610518565b604051808273ffffffffffffffffffffffffffffffffffffffff16815260200191505060405180910390f35b610208600480360360208110156101dc57600080fd5b81019080803573ffffffffffffffffffffffffffffffffffffffff169060200190929190505050610542565b6040518082815260200191505060405180910390f35b61022661058b565b005b6102306106f8565b604051808273ffffffffffffffffffffffffffffffffffffffff16815260200191505060405180910390f35b6102886004803603602081101561027257600080fd5b8101908080359060200190929190505050610721565b005b6102cc600480360360208110156102a057600080fd5b81019080803573ffffffffffffffffffffffffffffffffffffffff169060200190929190505050610823565b005b6000600354905090565b600260009054906101000a900473ffffffffffffffffffffffffffffffffffffffff1681565b610306610a15565b73ffffffffffffffffffffffffffffffffffffffff166103246106f8565b73ffffffffffffffffffffffffffffffffffffffff16146103ad576040517f08c379a00000000000000000000000000000000000000000000000000000000081526004018080602001828103825260208152602001807f4f776e61626c653a2063616c6c6572206973206e6f7420746865206f776e657281525060200191505060405180910390fd5b6103b681610a1d565b50565b6103ce81600354610b4290919063ffffffff16565b60038190555061042681600460003373ffffffffffffffffffffffffffffffffffffffff1673ffffffffffffffffffffffffffffffffffffffff16815260200190815260200160002054610b4290919063ffffffff16565b600460003373ffffffffffffffffffffffffffffffffffffffff1673ffffffffffffffffffffffffffffffffffffffff168152602001908152602001600020819055506104b63382600260009054906101000a900473ffffffffffffffffffffffffffffffffffffffff1673ffffffffffffffffffffffffffffffffffffffff16610bc59092919063ffffffff16565b50565b6000600160009054906101000a900473ffffffffffffffffffffffffffffffffffffffff1673ffffffffffffffffffffffffffffffffffffffff166104fc610a15565b73ffffffffffffffffffffffffffffffffffffffff1614905090565b6000600160009054906101000a900473ffffffffffffffffffffffffffffffffffffffff16905090565b6000600460008373ffffffffffffffffffffffffffffffffffffffff1673ffffffffffffffffffffffffffffffffffffffff168152602001908152602001600020549050919050565b610593610a15565b73ffffffffffffffffffffffffffffffffffffffff166105b16106f8565b73ffffffffffffffffffffffffffffffffffffffff161461063a576040517f08c379a00000000000000000000000000000000000000000000000000000000081526004018080602001828103825260208152602001807f4f776e61626c653a2063616c6c6572206973206e6f7420746865206f776e657281525060200191505060405180910390fd5b600073ffffffffffffffffffffffffffffffffffffffff1660008054906101000a900473ffffffffffffffffffffffffffffffffffffffff1673ffffffffffffffffffffffffffffffffffffffff167f8be0079c531659141344cd1fd0a4f28419497f9722a3daafe3b4186f6b6457e060405160405180910390a360008060006101000a81548173ffffffffffffffffffffffffffffffffffffffff021916908373ffffffffffffffffffffffffffffffffffffffff160217905550565b60008060009054906101000a900473ffffffffffffffffffffffffffffffffffffffff16905090565b61073681600354610c6790919063ffffffff16565b60038190555061078e81600460003373ffffffffffffffffffffffffffffffffffffffff1673ffffffffffffffffffffffffffffffffffffffff16815260200190815260200160002054610c6790919063ffffffff16565b600460003373ffffffffffffffffffffffffffffffffffffffff1673ffffffffffffffffffffffffffffffffffffffff16815260200190815260200160002081905550610820333083600260009054906101000a900473ffffffffffffffffffffffffffffffffffffffff1673ffffffffffffffffffffffffffffffffffffffff16610cef909392919063ffffffff16565b50565b61082b610a15565b73ffffffffffffffffffffffffffffffffffffffff166108496106f8565b73ffffffffffffffffffffffffffffffffffffffff16146108d2576040517f08c379a00000000000000000000000000000000000000000000000000000000081526004018080602001828103825260208152602001807f4f776e61626c653a2063616c6c6572206973206e6f7420746865206f776e657281525060200191505060405180910390fd5b600073ffffffffffffffffffffffffffffffffffffffff168173ffffffffffffffffffffffffffffffffffffffff161415610958576040517f08c379a00000000000000000000000000000000000000000000000000000000081526004018080602001828103825260268152602001806111406026913960400191505060405180910390fd5b8073ffffffffffffffffffffffffffffffffffffffff1660008054906101000a900473ffffffffffffffffffffffffffffffffffffffff1673ffffffffffffffffffffffffffffffffffffffff167f8be0079c531659141344cd1fd0a4f28419497f9722a3daafe3b4186f6b6457e060405160405180910390a3806000806101000a81548173ffffffffffffffffffffffffffffffffffffffff021916908373ffffffffffffffffffffffffffffffffffffffff16021790555050565b600033905090565b600073ffffffffffffffffffffffffffffffffffffffff168173ffffffffffffffffffffffffffffffffffffffff161415610aa3576040517f08c379a000000000000000000000000000000000000000000000000000000000815260040180806020018281038252602d81526020018061118c602d913960400191505060405180910390fd5b8073ffffffffffffffffffffffffffffffffffffffff16600073ffffffffffffffffffffffffffffffffffffffff167f74da04524d50c64947f5dd5381ef1a4dca5cba8ed1d816243f9e48aa0b5617ed60405160405180910390a380600160006101000a81548173ffffffffffffffffffffffffffffffffffffffff021916908373ffffffffffffffffffffffffffffffffffffffff16021790555050565b600082821115610bba576040517f08c379a000000000000000000000000000000000000000000000000000000000815260040180806020018281038252601e8152602001807f536166654d6174683a207375627472616374696f6e206f766572666c6f77000081525060200191505060405180910390fd5b818303905092915050565b610c628363a9059cbb60e01b8484604051602401808373ffffffffffffffffffffffffffffffffffffffff16815260200182815260200192505050604051602081830303815290604052907bffffffffffffffffffffffffffffffffffffffffffffffffffffffff19166020820180517bffffffffffffffffffffffffffffffffffffffffffffffffffffffff8381831617835250505050610db0565b505050565b600080828401905083811015610ce5576040517f08c379a000000000000000000000000000000000000000000000000000000000815260040180806020018281038252601b8152602001807f536166654d6174683a206164646974696f6e206f766572666c6f77000000000081525060200191505060405180910390fd5b8091505092915050565b610daa846323b872dd60e01b858585604051602401808473ffffffffffffffffffffffffffffffffffffffff1681526020018373ffffffffffffffffffffffffffffffffffffffff1681526020018281526020019350505050604051602081830303815290604052907bffffffffffffffffffffffffffffffffffffffffffffffffffffffff19166020820180517bffffffffffffffffffffffffffffffffffffffffffffffffffffffff8381831617835250505050610db0565b50505050565b6060610e12826040518060400160405280602081526020017f5361666545524332303a206c6f772d6c6576656c2063616c6c206661696c65648152508573ffffffffffffffffffffffffffffffffffffffff16610e9f9092919063ffffffff16565b9050600081511115610e9a57808060200190516020811015610e3357600080fd5b8101908080519060200190929190505050610e99576040517f08c379a000000000000000000000000000000000000000000000000000000000815260040180806020018281038252602a8152602001806111b9602a913960400191505060405180910390fd5b5b505050565b6060610eae8484600085610eb7565b90509392505050565b606082471015610f12576040517f08c379a00000000000000000000000000000000000000000000000000000000081526004018080602001828103825260268152602001806111666026913960400191505060405180910390fd5b610f1b85611060565b610f8d576040517f08c379a000000000000000000000000000000000000000000000000000000000815260040180806020018281038252601d8152602001807f416464726573733a2063616c6c20746f206e6f6e2d636f6e747261637400000081525060200191505060405180910390fd5b600060608673ffffffffffffffffffffffffffffffffffffffff1685876040518082805190602001908083835b60208310610fdd5780518252602082019150602081019050602083039250610fba565b6001836020036101000a03801982511681845116808217855250505050505090500191505060006040518083038185875af1925050503d806000811461103f576040519150601f19603f3d011682016040523d82523d6000602084013e611044565b606091505b5091509150611054828286611073565b92505050949350505050565b600080823b905060008111915050919050565b6060831561108357829050611138565b6000835111156110965782518084602001fd5b816040517f08c379a00000000000000000000000000000000000000000000000000000000081526004018080602001828103825283818151815260200191508051906020019080838360005b838110156110fd5780820151818401526020810190506110e2565b50505050905090810190601f16801561112a5780820380516001836020036101000a031916815260200191505b509250505060405180910390fd5b939250505056fe4f776e61626c653a206e6577206f776e657220697320746865207a65726f2061646472657373416464726573733a20696e73756666696369656e742062616c616e636520666f722063616c6c6f70657261746f723a207a65726f206164647265737320676976656e20666f72206e6577206f70657261746f725361666545524332303a204552433230206f7065726174696f6e20646964206e6f742073756363656564a2646970667358221220d96f7c1ed33a4547f258559e53a1feff34448daa8a1ed0a9c55d0b81687af8b764736f6c63430007000033",
  "immutableReferences": {},
  "source": "pragma solidity ^0.7.0;\r\n/**\r\n *Submitted for verification at Etherscan.io on 2020-07-17\r\n */\r\n\r\n/*\r\n   ____            __   __        __   _\r\n  / __/__ __ ___  / /_ / /  ___  / /_ (_)__ __\r\n _\\ \\ / // // _ \\/ __// _ \\/ -_)/ __// / \\ \\ /\r\n/___/ \\_, //_//_/\\__//_//_/\\__/ \\__//_/ /_\\_\\\r\n     /___/\r\n\r\n* Synthetix: KBTCRewards.sol\r\n*\r\n* Docs: https://docs.synthetix.io/\r\n*\r\n*\r\n* MIT License\r\n* ===========\r\n*\r\n* Copyright (c) 2020 Synthetix\r\n*\r\n* Permission is hereby granted, free of charge, to any person obtaining a copy\r\n* of this software and associated documentation files (the \"Software\"), to deal\r\n* in the Software without restriction, including without limitation the rights\r\n* to use, copy, modify, merge, publish, distribute, sublicense, and/or sell\r\n* copies of the Software, and to permit persons to whom the Software is\r\n* furnished to do so, subject to the following conditions:\r\n*\r\n* The above copyright notice and this permission notice shall be included in all\r\n* copies or substantial portions of the Software.\r\n*\r\n* THE SOFTWARE IS PROVIDED \"AS IS\", WITHOUT WARRANTY OF ANY KIND, EXPRESS OR\r\n* IMPLIED, INCLUDING BUT NOT LIMITED TO THE WARRANTIES OF MERCHANTABILITY,\r\n* FITNESS FOR A PARTICULAR PURPOSE AND NONINFRINGEMENT. IN NO EVENT SHALL THE\r\n* AUTHORS OR COPYRIGHT HOLDERS BE LIABLE FOR ANY CLAIM, DAMAGES OR OTHER\r\n* LIABILITY, WHETHER IN AN ACTION OF CONTRACT, TORT OR OTHERWISE, ARISING FROM,\r\n* OUT OF OR IN CONNECTION WITH THE SOFTWARE OR THE USE OR OTHER DEALINGS IN THE\r\n*/\r\n\r\n// File: @openzeppelin/contracts/math/Math.sol\r\n\r\nimport '@openzeppelin/contracts/math/Math.sol';\r\n\r\n// File: @openzeppelin/contracts/math/SafeMath.sol\r\n\r\nimport '@openzeppelin/contracts/math/SafeMath.sol';\r\n\r\n// File: @openzeppelin/contracts/token/ERC20/IERC20.sol\r\n\r\nimport '@openzeppelin/contracts/token/ERC20/IERC20.sol';\r\n\r\n// File: @openzeppelin/contracts/utils/Address.sol\r\n\r\nimport '@openzeppelin/contracts/utils/Address.sol';\r\n\r\n// File: @openzeppelin/contracts/token/ERC20/SafeERC20.sol\r\n\r\nimport '@openzeppelin/contracts/token/ERC20/SafeERC20.sol';\r\n\r\n// File: contracts/IRewardDistributionRecipient.sol\r\n\r\nimport './interfaces/IBasisAsset.sol';\r\nimport './interfaces/IRewardDistributionRecipient.sol';\r\nimport './interfaces/IBoardroom.sol';\r\nimport './utils/Operator.sol';\r\n\r\ncontract KBTCWrapper is Operator {\r\n    using SafeMath for uint256;\r\n    using SafeERC20 for IERC20;\r\n\r\n    //0xe6c3502997f97f9bde34cb165fbce191065e068f\r\n    IERC20 public KBTC;\r\n\r\n    uint256 private _totalSupply;\r\n    mapping(address => uint256) private _balances;\r\n\r\n    function totalSupply() public view returns (uint256) {\r\n        return _totalSupply;\r\n    }\r\n\r\n    function balanceOf(address account) public view returns (uint256) {\r\n        return _balances[account];\r\n    }\r\n\r\n    function stake(uint256 amount) public virtual {\r\n        _totalSupply = _totalSupply.add(amount);\r\n        _balances[msg.sender] = _balances[msg.sender].add(amount);\r\n        KBTC.safeTransferFrom(msg.sender, address(this), amount);\r\n    }\r\n\r\n    function withdraw(uint256 amount) public virtual {\r\n        _totalSupply = _totalSupply.sub(amount);\r\n        _balances[msg.sender] = _balances[msg.sender].sub(amount);\r\n        KBTC.safeTransfer(msg.sender, amount);\r\n    }\r\n}\r\n\r\ncontract shortStakeKBTCPool is KBTCWrapper, IRewardDistributionRecipient {\r\n    using SafeMath for uint256;\r\n    using SafeERC20 for IERC20;\r\n\r\n    IERC20 public LIFT;\r\n    address public boardroom;\r\n\r\n    uint256 public DURATION = 10 days;\r\n\r\n    uint256 public starttime;\r\n    uint256 public periodFinish = 0;\r\n    uint256 public rewardRate = 0;\r\n    uint256 public lastUpdateTime;\r\n    uint256 public rewardPerTokenStored;\r\n    mapping(address => uint256) public userRewardPerTokenPaid;\r\n    mapping(address => uint256) public rewards;\r\n    mapping(address => uint256) public deposits;\r\n\r\n    event RewardAdded(uint256 reward);\r\n    event Staked(address indexed user, uint256 amount);\r\n    event Withdrawn(address indexed user, uint256 amount);\r\n    event RewardPaid(address indexed user, uint256 reward);\r\n\r\n    constructor(\r\n        address _LIFT,\r\n        address _KBTC,\r\n        address _boardroom,\r\n        uint256 _starttime\r\n    ) public {\r\n        LIFT = IERC20(_LIFT);\r\n        KBTC = IERC20(_KBTC);\r\n        boardroom = _boardroom;\r\n        starttime = _starttime;\r\n    }\r\n\r\n    modifier checkStart() {\r\n        require(block.timestamp >= starttime, 'shortStakeKBTCPool: not started');\r\n        _;\r\n    }\r\n\r\n    modifier updateReward(address account) {\r\n        rewardPerTokenStored = rewardPerToken();\r\n        lastUpdateTime = lastTimeRewardApplicable();\r\n        if (account != address(0)) {\r\n            rewards[account] = earned(account);\r\n            userRewardPerTokenPaid[account] = rewardPerTokenStored;\r\n        }\r\n        _;\r\n    }\r\n\r\n    function lastTimeRewardApplicable() public view returns (uint256) {\r\n        return Math.min(block.timestamp, periodFinish);\r\n    }\r\n\r\n    function rewardPerToken() public view returns (uint256) {\r\n        if (totalSupply() == 0) {\r\n            return rewardPerTokenStored;\r\n        }\r\n        return\r\n            rewardPerTokenStored.add(\r\n                lastTimeRewardApplicable()\r\n                    .sub(lastUpdateTime)\r\n                    .mul(rewardRate)\r\n                    .mul(1e18)\r\n                    .div(totalSupply())\r\n            );\r\n    }\r\n\r\n    function earned(address account) public view returns (uint256) {\r\n        return\r\n            balanceOf(account)\r\n                .mul(rewardPerToken().sub(userRewardPerTokenPaid[account]))\r\n                .div(1e18)\r\n                .add(rewards[account]);\r\n    }\r\n\r\n    // stake visibility is public as overriding LPTokenWrapper's stake() function\r\n    function stake(uint256 amount)\r\n        public\r\n        override\r\n        updateReward(msg.sender)\r\n        checkStart\r\n    {\r\n        require(amount > 0, 'shortStakeKBTCPool: Cannot stake 0');\r\n        uint256 newDeposit = deposits[msg.sender].add(amount);\r\n        deposits[msg.sender] = newDeposit;\r\n        super.stake(amount);\r\n        emit Staked(msg.sender, amount);\r\n    }\r\n\r\n    function withdraw(uint256 amount)\r\n        public\r\n        override\r\n        updateReward(msg.sender)\r\n        checkStart\r\n    {\r\n        require(amount > 0, 'shortStakeKBTCPool: Cannot withdraw 0');\r\n        deposits[msg.sender] = deposits[msg.sender].sub(amount);\r\n        super.withdraw(amount);\r\n        emit Withdrawn(msg.sender, amount);\r\n    }\r\n\r\n    function exit() external {\r\n        withdraw(balanceOf(msg.sender));\r\n        stakeInBoardroom();\r\n    }\r\n\r\n    function stakeInBoardroom() public updateReward(msg.sender) {\r\n        uint256 reward = earned(msg.sender);\r\n        if (reward > 0) {\r\n            rewards[msg.sender] = 0;\r\n\r\n            IERC20(LIFT).approve(boardroom, reward);\r\n            IBoardroom(boardroom).stakeShareForThirdParty(msg.sender, address(this), reward);\r\n            emit RewardPaid(msg.sender, reward);\r\n        }\r\n    }\r\n\r\n    function notifyRewardAmount(uint256 reward)\r\n        external\r\n        override\r\n        onlyRewardDistribution\r\n        updateReward(address(0))\r\n    {\r\n        if (block.timestamp > starttime) {\r\n            if (block.timestamp >= periodFinish) {\r\n                rewardRate = reward.div(DURATION);\r\n            } else {\r\n                uint256 remaining = periodFinish.sub(block.timestamp);\r\n                uint256 leftover = remaining.mul(rewardRate);\r\n                rewardRate = reward.add(leftover).div(DURATION);\r\n            }\r\n            lastUpdateTime = block.timestamp;\r\n            periodFinish = block.timestamp.add(DURATION);\r\n            emit RewardAdded(reward);\r\n        } else {\r\n            rewardRate = reward.div(DURATION);\r\n            lastUpdateTime = starttime;\r\n            periodFinish = starttime.add(DURATION);\r\n            emit RewardAdded(reward);\r\n        }\r\n    }\r\n\r\n    //EVERY PROJECT I HAVE SEEN HAS A NEED TO NUKE THEIR LP AT SOME POINT\r\n    function burnRewards() external onlyOwner\r\n    {\r\n         IBasisAsset(address(LIFT)).burn(IERC20(LIFT).balanceOf(address(this)));\r\n    }\r\n\r\n    // If anyone sends tokens directly to the contract we can refund them.\r\n    function cleanUpDust(uint256 amount, address tokenAddress, address sendTo) onlyOperator public  {     \r\n            IERC20(tokenAddress).safeTransfer(sendTo, amount);\r\n    }\r\n}\r\n",
  "sourcePath": "C:/Coding/LIFT-SingleStake/contracts/shortStakeKBTCPool.sol",
  "compiler": {
    "name": "solc",
    "version": "0.7.0+commit.9e61f92b.Emscripten.clang"
  },
  "schemaVersion": "3.4.0",
  "updatedAt": "2021-04-30T01:59:26.361Z",
  "devdoc": {
    "kind": "dev",
    "methods": {
      "owner()": {
        "details": "Returns the address of the current owner."
      },
      "renounceOwnership()": {
        "details": "Leaves the contract without owner. It will not be possible to call `onlyOwner` functions anymore. Can only be called by the current owner. NOTE: Renouncing ownership will leave the contract without an owner, thereby removing any functionality that is only available to the owner."
      },
      "transferOwnership(address)": {
        "details": "Transfers ownership of the contract to a new account (`newOwner`). Can only be called by the current owner."
      }
    },
    "version": 1
  },
  "userdoc": {
    "kind": "user",
    "methods": {},
    "version": 1
  }
}