{
  "contractName": "KBTCWrapper",
  "abi": [
    {
      "inputs": [],
      "name": "KBTC",
      "outputs": [
        {
          "internalType": "contract IERC20",
          "name": "",
          "type": "address"
        }
      ],
      "stateMutability": "view",
      "type": "function"
    },
    {
      "inputs": [],
      "name": "totalSupply",
      "outputs": [
        {
          "internalType": "uint256",
          "name": "",
          "type": "uint256"
        }
      ],
      "stateMutability": "view",
      "type": "function"
    },
    {
      "inputs": [
        {
          "internalType": "address",
          "name": "account",
          "type": "address"
        }
      ],
      "name": "balanceOf",
      "outputs": [
        {
          "internalType": "uint256",
          "name": "",
          "type": "uint256"
        }
      ],
      "stateMutability": "view",
      "type": "function"
    },
    {
      "inputs": [
        {
          "internalType": "uint256",
          "name": "amount",
          "type": "uint256"
        }
      ],
      "name": "stake",
      "outputs": [],
      "stateMutability": "nonpayable",
      "type": "function"
    },
    {
      "inputs": [
        {
          "internalType": "uint256",
          "name": "amount",
          "type": "uint256"
        }
      ],
      "name": "withdraw",
      "outputs": [],
      "stateMutability": "nonpayable",
      "type": "function"
    }
  ],
  "bytecode": "0x608060405234801561001057600080fd5b50610a5a806100206000396000f3fe608060405234801561001057600080fd5b50600436106100575760003560e01c806318160ddd1461005c57806319550da41461007a5780632e1a7d4d146100ae57806370a08231146100dc578063a694fc3a14610134575b600080fd5b610064610162565b6040518082815260200191505060405180910390f35b61008261016c565b604051808273ffffffffffffffffffffffffffffffffffffffff16815260200191505060405180910390f35b6100da600480360360208110156100c457600080fd5b8101908080359060200190929190505050610190565b005b61011e600480360360208110156100f257600080fd5b81019080803573ffffffffffffffffffffffffffffffffffffffff16906020019092919050505061028e565b6040518082815260200191505060405180910390f35b6101606004803603602081101561014a57600080fd5b81019080803590602001909291905050506102d7565b005b6000600154905090565b60008054906101000a900473ffffffffffffffffffffffffffffffffffffffff1681565b6101a5816001546103d790919063ffffffff16565b6001819055506101fd81600260003373ffffffffffffffffffffffffffffffffffffffff1673ffffffffffffffffffffffffffffffffffffffff168152602001908152602001600020546103d790919063ffffffff16565b600260003373ffffffffffffffffffffffffffffffffffffffff1673ffffffffffffffffffffffffffffffffffffffff1681526020019081526020016000208190555061028b338260008054906101000a900473ffffffffffffffffffffffffffffffffffffffff1673ffffffffffffffffffffffffffffffffffffffff1661045a9092919063ffffffff16565b50565b6000600260008373ffffffffffffffffffffffffffffffffffffffff1673ffffffffffffffffffffffffffffffffffffffff168152602001908152602001600020549050919050565b6102ec816001546104fc90919063ffffffff16565b60018190555061034481600260003373ffffffffffffffffffffffffffffffffffffffff1673ffffffffffffffffffffffffffffffffffffffff168152602001908152602001600020546104fc90919063ffffffff16565b600260003373ffffffffffffffffffffffffffffffffffffffff1673ffffffffffffffffffffffffffffffffffffffff168152602001908152602001600020819055506103d433308360008054906101000a900473ffffffffffffffffffffffffffffffffffffffff1673ffffffffffffffffffffffffffffffffffffffff16610584909392919063ffffffff16565b50565b60008282111561044f576040517f08c379a000000000000000000000000000000000000000000000000000000000815260040180806020018281038252601e8152602001807f536166654d6174683a207375627472616374696f6e206f766572666c6f77000081525060200191505060405180910390fd5b818303905092915050565b6104f78363a9059cbb60e01b8484604051602401808373ffffffffffffffffffffffffffffffffffffffff16815260200182815260200192505050604051602081830303815290604052907bffffffffffffffffffffffffffffffffffffffffffffffffffffffff19166020820180517bffffffffffffffffffffffffffffffffffffffffffffffffffffffff8381831617835250505050610645565b505050565b60008082840190508381101561057a576040517f08c379a000000000000000000000000000000000000000000000000000000000815260040180806020018281038252601b8152602001807f536166654d6174683a206164646974696f6e206f766572666c6f77000000000081525060200191505060405180910390fd5b8091505092915050565b61063f846323b872dd60e01b858585604051602401808473ffffffffffffffffffffffffffffffffffffffff1681526020018373ffffffffffffffffffffffffffffffffffffffff1681526020018281526020019350505050604051602081830303815290604052907bffffffffffffffffffffffffffffffffffffffffffffffffffffffff19166020820180517bffffffffffffffffffffffffffffffffffffffffffffffffffffffff8381831617835250505050610645565b50505050565b60606106a7826040518060400160405280602081526020017f5361666545524332303a206c6f772d6c6576656c2063616c6c206661696c65648152508573ffffffffffffffffffffffffffffffffffffffff166107349092919063ffffffff16565b905060008151111561072f578080602001905160208110156106c857600080fd5b810190808051906020019092919050505061072e576040517f08c379a000000000000000000000000000000000000000000000000000000000815260040180806020018281038252602a8152602001806109fb602a913960400191505060405180910390fd5b5b505050565b6060610743848460008561074c565b90509392505050565b6060824710156107a7576040517f08c379a00000000000000000000000000000000000000000000000000000000081526004018080602001828103825260268152602001806109d56026913960400191505060405180910390fd5b6107b0856108f5565b610822576040517f08c379a000000000000000000000000000000000000000000000000000000000815260040180806020018281038252601d8152602001807f416464726573733a2063616c6c20746f206e6f6e2d636f6e747261637400000081525060200191505060405180910390fd5b600060608673ffffffffffffffffffffffffffffffffffffffff1685876040518082805190602001908083835b60208310610872578051825260208201915060208101905060208303925061084f565b6001836020036101000a03801982511681845116808217855250505050505090500191505060006040518083038185875af1925050503d80600081146108d4576040519150601f19603f3d011682016040523d82523d6000602084013e6108d9565b606091505b50915091506108e9828286610908565b92505050949350505050565b600080823b905060008111915050919050565b60608315610918578290506109cd565b60008351111561092b5782518084602001fd5b816040517f08c379a00000000000000000000000000000000000000000000000000000000081526004018080602001828103825283818151815260200191508051906020019080838360005b83811015610992578082015181840152602081019050610977565b50505050905090810190601f1680156109bf5780820380516001836020036101000a031916815260200191505b509250505060405180910390fd5b939250505056fe416464726573733a20696e73756666696369656e742062616c616e636520666f722063616c6c5361666545524332303a204552433230206f7065726174696f6e20646964206e6f742073756363656564a26469706673582212203cbd7fbea74e468d5f78e0e92d4c0ec04fe5d04e009c6810c5c62dba85c387fa64736f6c63430007000033",
  "immutableReferences": {},
  "source": "pragma solidity ^0.7.0;\r\n/**\r\n *Submitted for verification at Etherscan.io on 2020-07-17\r\n */\r\n\r\n/*\r\n   ____            __   __        __   _\r\n  / __/__ __ ___  / /_ / /  ___  / /_ (_)__ __\r\n _\\ \\ / // // _ \\/ __// _ \\/ -_)/ __// / \\ \\ /\r\n/___/ \\_, //_//_/\\__//_//_/\\__/ \\__//_/ /_\\_\\\r\n     /___/\r\n\r\n* Synthetix: KBTCRewards.sol\r\n*\r\n* Docs: https://docs.synthetix.io/\r\n*\r\n*\r\n* MIT License\r\n* ===========\r\n*\r\n* Copyright (c) 2020 Synthetix\r\n*\r\n* Permission is hereby granted, free of charge, to any person obtaining a copy\r\n* of this software and associated documentation files (the \"Software\"), to deal\r\n* in the Software without restriction, including without limitation the rights\r\n* to use, copy, modify, merge, publish, distribute, sublicense, and/or sell\r\n* copies of the Software, and to permit persons to whom the Software is\r\n* furnished to do so, subject to the following conditions:\r\n*\r\n* The above copyright notice and this permission notice shall be included in all\r\n* copies or substantial portions of the Software.\r\n*\r\n* THE SOFTWARE IS PROVIDED \"AS IS\", WITHOUT WARRANTY OF ANY KIND, EXPRESS OR\r\n* IMPLIED, INCLUDING BUT NOT LIMITED TO THE WARRANTIES OF MERCHANTABILITY,\r\n* FITNESS FOR A PARTICULAR PURPOSE AND NONINFRINGEMENT. IN NO EVENT SHALL THE\r\n* AUTHORS OR COPYRIGHT HOLDERS BE LIABLE FOR ANY CLAIM, DAMAGES OR OTHER\r\n* LIABILITY, WHETHER IN AN ACTION OF CONTRACT, TORT OR OTHERWISE, ARISING FROM,\r\n* OUT OF OR IN CONNECTION WITH THE SOFTWARE OR THE USE OR OTHER DEALINGS IN THE\r\n*/\r\n\r\n// File: @openzeppelin/contracts/math/Math.sol\r\n\r\nimport '@openzeppelin/contracts/math/Math.sol';\r\n\r\n// File: @openzeppelin/contracts/math/SafeMath.sol\r\n\r\nimport '@openzeppelin/contracts/math/SafeMath.sol';\r\n\r\n// File: @openzeppelin/contracts/token/ERC20/IERC20.sol\r\n\r\nimport '@openzeppelin/contracts/token/ERC20/IERC20.sol';\r\n\r\n// File: @openzeppelin/contracts/utils/Address.sol\r\n\r\nimport '@openzeppelin/contracts/utils/Address.sol';\r\n\r\n// File: @openzeppelin/contracts/token/ERC20/SafeERC20.sol\r\n\r\nimport '@openzeppelin/contracts/token/ERC20/SafeERC20.sol';\r\n\r\n// File: contracts/IRewardDistributionRecipient.sol\r\n\r\nimport './interfaces/IRewardDistributionRecipient.sol';\r\nimport './interfaces/IBoardroom.sol';\r\n\r\ncontract KBTCWrapper {\r\n    using SafeMath for uint256;\r\n    using SafeERC20 for IERC20;\r\n\r\n    //0xe6c3502997f97f9bde34cb165fbce191065e068f\r\n    IERC20 public KBTC;\r\n\r\n    uint256 private _totalSupply;\r\n    mapping(address => uint256) private _balances;\r\n\r\n    function totalSupply() public view returns (uint256) {\r\n        return _totalSupply;\r\n    }\r\n\r\n    function balanceOf(address account) public view returns (uint256) {\r\n        return _balances[account];\r\n    }\r\n\r\n    function stake(uint256 amount) public virtual {\r\n        _totalSupply = _totalSupply.add(amount);\r\n        _balances[msg.sender] = _balances[msg.sender].add(amount);\r\n        KBTC.safeTransferFrom(msg.sender, address(this), amount);\r\n    }\r\n\r\n    function withdraw(uint256 amount) public virtual {\r\n        _totalSupply = _totalSupply.sub(amount);\r\n        _balances[msg.sender] = _balances[msg.sender].sub(amount);\r\n        KBTC.safeTransfer(msg.sender, amount);\r\n    }\r\n}\r\n\r\ncontract shortStakeKBTCPool is KBTCWrapper, IRewardDistributionRecipient {\r\n    using SafeMath for uint256;\r\n    using SafeERC20 for IERC20;\r\n\r\n    IERC20 public LIFT;\r\n    address public boardroom;\r\n\r\n    uint256 public DURATION = 10 days;\r\n\r\n    uint256 public starttime;\r\n    uint256 public periodFinish = 0;\r\n    uint256 public rewardRate = 0;\r\n    uint256 public lastUpdateTime;\r\n    uint256 public rewardPerTokenStored;\r\n    mapping(address => uint256) public userRewardPerTokenPaid;\r\n    mapping(address => uint256) public rewards;\r\n    mapping(address => uint256) public deposits;\r\n\r\n    event RewardAdded(uint256 reward);\r\n    event Staked(address indexed user, uint256 amount);\r\n    event Withdrawn(address indexed user, uint256 amount);\r\n    event RewardPaid(address indexed user, uint256 reward);\r\n\r\n    constructor(\r\n        address _LIFT,\r\n        address _KBTC,\r\n        address _boardroom,\r\n        uint256 _starttime\r\n    ) public {\r\n        LIFT = IERC20(_LIFT);\r\n        KBTC = IERC20(_KBTC);\r\n        boardroom = _boardroom;\r\n        starttime = _starttime;\r\n    }\r\n\r\n    modifier checkStart() {\r\n        require(block.timestamp >= starttime, 'shortStakeKBTCPool: not started');\r\n        _;\r\n    }\r\n\r\n    modifier updateReward(address account) {\r\n        rewardPerTokenStored = rewardPerToken();\r\n        lastUpdateTime = lastTimeRewardApplicable();\r\n        if (account != address(0)) {\r\n            rewards[account] = earned(account);\r\n            userRewardPerTokenPaid[account] = rewardPerTokenStored;\r\n        }\r\n        _;\r\n    }\r\n\r\n    function lastTimeRewardApplicable() public view returns (uint256) {\r\n        return Math.min(block.timestamp, periodFinish);\r\n    }\r\n\r\n    function rewardPerToken() public view returns (uint256) {\r\n        if (totalSupply() == 0) {\r\n            return rewardPerTokenStored;\r\n        }\r\n        return\r\n            rewardPerTokenStored.add(\r\n                lastTimeRewardApplicable()\r\n                    .sub(lastUpdateTime)\r\n                    .mul(rewardRate)\r\n                    .mul(1e18)\r\n                    .div(totalSupply())\r\n            );\r\n    }\r\n\r\n    function earned(address account) public view returns (uint256) {\r\n        return\r\n            balanceOf(account)\r\n                .mul(rewardPerToken().sub(userRewardPerTokenPaid[account]))\r\n                .div(1e18)\r\n                .add(rewards[account]);\r\n    }\r\n\r\n    // stake visibility is public as overriding LPTokenWrapper's stake() function\r\n    function stake(uint256 amount)\r\n        public\r\n        override\r\n        updateReward(msg.sender)\r\n        checkStart\r\n    {\r\n        require(amount > 0, 'shortStakeKBTCPool: Cannot stake 0');\r\n        uint256 newDeposit = deposits[msg.sender].add(amount);\r\n        deposits[msg.sender] = newDeposit;\r\n        super.stake(amount);\r\n        emit Staked(msg.sender, amount);\r\n    }\r\n\r\n    function withdraw(uint256 amount)\r\n        public\r\n        override\r\n        updateReward(msg.sender)\r\n        checkStart\r\n    {\r\n        require(amount > 0, 'shortStakeKBTCPool: Cannot withdraw 0');\r\n        deposits[msg.sender] = deposits[msg.sender].sub(amount);\r\n        super.withdraw(amount);\r\n        emit Withdrawn(msg.sender, amount);\r\n    }\r\n\r\n    function exit() external {\r\n        withdraw(balanceOf(msg.sender));\r\n        stakeInBoardroom();\r\n    }\r\n\r\n    function stakeInBoardroom() public updateReward(msg.sender) {\r\n        uint256 reward = earned(msg.sender);\r\n        if (reward > 0) {\r\n            rewards[msg.sender] = 0;\r\n\r\n            IERC20(LIFT).approve(boardroom, reward);\r\n            IBoardroom(boardroom).stakeShareForThirdParty(msg.sender, address(this), reward);\r\n            emit RewardPaid(msg.sender, reward);\r\n        }\r\n    }\r\n\r\n    function notifyRewardAmount(uint256 reward)\r\n        external\r\n        override\r\n        onlyRewardDistribution\r\n        updateReward(address(0))\r\n    {\r\n        if (block.timestamp > starttime) {\r\n            if (block.timestamp >= periodFinish) {\r\n                rewardRate = reward.div(DURATION);\r\n            } else {\r\n                uint256 remaining = periodFinish.sub(block.timestamp);\r\n                uint256 leftover = remaining.mul(rewardRate);\r\n                rewardRate = reward.add(leftover).div(DURATION);\r\n            }\r\n            lastUpdateTime = block.timestamp;\r\n            periodFinish = block.timestamp.add(DURATION);\r\n            emit RewardAdded(reward);\r\n        } else {\r\n            rewardRate = reward.div(DURATION);\r\n            lastUpdateTime = starttime;\r\n            periodFinish = starttime.add(DURATION);\r\n            emit RewardAdded(reward);\r\n        }\r\n    }\r\n}\r\n",
  "sourcePath": "C:/Coding/LIFT-SingleStake/contracts/shortStakeKBTCPool.sol",
  "compiler": {
    "name": "solc",
    "version": "0.7.0+commit.9e61f92b.Emscripten.clang"
  },
  "schemaVersion": "3.4.0",
  "updatedAt": "2021-04-26T00:08:01.883Z",
  "devdoc": {
    "kind": "dev",
    "methods": {},
    "version": 1
  },
  "userdoc": {
    "kind": "user",
    "methods": {},
    "version": 1
  }
}