{
  "contractName": "shortStakealUSDPool",
  "abi": [
    {
      "inputs": [
        {
          "internalType": "address",
          "name": "_LIFT",
          "type": "address"
        },
        {
          "internalType": "address",
          "name": "_alUSD",
          "type": "address"
        },
        {
          "internalType": "address",
          "name": "_boardroom",
          "type": "address"
        },
        {
          "internalType": "uint256",
          "name": "_starttime",
          "type": "uint256"
        }
      ],
      "stateMutability": "nonpayable",
      "type": "constructor"
    },
    {
      "anonymous": false,
      "inputs": [
        {
          "indexed": true,
          "internalType": "address",
          "name": "previousOperator",
          "type": "address"
        },
        {
          "indexed": true,
          "internalType": "address",
          "name": "newOperator",
          "type": "address"
        }
      ],
      "name": "OperatorTransferred",
      "type": "event"
    },
    {
      "anonymous": false,
      "inputs": [
        {
          "indexed": true,
          "internalType": "address",
          "name": "previousOwner",
          "type": "address"
        },
        {
          "indexed": true,
          "internalType": "address",
          "name": "newOwner",
          "type": "address"
        }
      ],
      "name": "OwnershipTransferred",
      "type": "event"
    },
    {
      "anonymous": false,
      "inputs": [
        {
          "indexed": false,
          "internalType": "uint256",
          "name": "reward",
          "type": "uint256"
        }
      ],
      "name": "RewardAdded",
      "type": "event"
    },
    {
      "anonymous": false,
      "inputs": [
        {
          "indexed": true,
          "internalType": "address",
          "name": "user",
          "type": "address"
        },
        {
          "indexed": false,
          "internalType": "uint256",
          "name": "reward",
          "type": "uint256"
        }
      ],
      "name": "RewardPaid",
      "type": "event"
    },
    {
      "anonymous": false,
      "inputs": [
        {
          "indexed": true,
          "internalType": "address",
          "name": "user",
          "type": "address"
        },
        {
          "indexed": false,
          "internalType": "uint256",
          "name": "amount",
          "type": "uint256"
        }
      ],
      "name": "Staked",
      "type": "event"
    },
    {
      "anonymous": false,
      "inputs": [
        {
          "indexed": true,
          "internalType": "address",
          "name": "user",
          "type": "address"
        },
        {
          "indexed": false,
          "internalType": "uint256",
          "name": "amount",
          "type": "uint256"
        }
      ],
      "name": "Withdrawn",
      "type": "event"
    },
    {
      "inputs": [],
      "name": "DURATION",
      "outputs": [
        {
          "internalType": "uint256",
          "name": "",
          "type": "uint256"
        }
      ],
      "stateMutability": "view",
      "type": "function",
      "constant": true
    },
    {
      "inputs": [],
      "name": "LIFT",
      "outputs": [
        {
          "internalType": "contract IERC20",
          "name": "",
          "type": "address"
        }
      ],
      "stateMutability": "view",
      "type": "function",
      "constant": true
    },
    {
      "inputs": [],
      "name": "alUSD",
      "outputs": [
        {
          "internalType": "contract IERC20",
          "name": "",
          "type": "address"
        }
      ],
      "stateMutability": "view",
      "type": "function",
      "constant": true
    },
    {
      "inputs": [
        {
          "internalType": "address",
          "name": "account",
          "type": "address"
        }
      ],
      "name": "balanceOf",
      "outputs": [
        {
          "internalType": "uint256",
          "name": "",
          "type": "uint256"
        }
      ],
      "stateMutability": "view",
      "type": "function",
      "constant": true
    },
    {
      "inputs": [],
      "name": "boardroom",
      "outputs": [
        {
          "internalType": "address",
          "name": "",
          "type": "address"
        }
      ],
      "stateMutability": "view",
      "type": "function",
      "constant": true
    },
    {
      "inputs": [
        {
          "internalType": "address",
          "name": "",
          "type": "address"
        }
      ],
      "name": "deposits",
      "outputs": [
        {
          "internalType": "uint256",
          "name": "",
          "type": "uint256"
        }
      ],
      "stateMutability": "view",
      "type": "function",
      "constant": true
    },
    {
      "inputs": [],
      "name": "isOperator",
      "outputs": [
        {
          "internalType": "bool",
          "name": "",
          "type": "bool"
        }
      ],
      "stateMutability": "view",
      "type": "function",
      "constant": true
    },
    {
      "inputs": [],
      "name": "lastUpdateTime",
      "outputs": [
        {
          "internalType": "uint256",
          "name": "",
          "type": "uint256"
        }
      ],
      "stateMutability": "view",
      "type": "function",
      "constant": true
    },
    {
      "inputs": [],
      "name": "operator",
      "outputs": [
        {
          "internalType": "address",
          "name": "",
          "type": "address"
        }
      ],
      "stateMutability": "view",
      "type": "function",
      "constant": true
    },
    {
      "inputs": [],
      "name": "owner",
      "outputs": [
        {
          "internalType": "address",
          "name": "",
          "type": "address"
        }
      ],
      "stateMutability": "view",
      "type": "function",
      "constant": true
    },
    {
      "inputs": [],
      "name": "periodFinish",
      "outputs": [
        {
          "internalType": "uint256",
          "name": "",
          "type": "uint256"
        }
      ],
      "stateMutability": "view",
      "type": "function",
      "constant": true
    },
    {
      "inputs": [],
      "name": "renounceOwnership",
      "outputs": [],
      "stateMutability": "nonpayable",
      "type": "function"
    },
    {
      "inputs": [],
      "name": "rewardDistribution",
      "outputs": [
        {
          "internalType": "address",
          "name": "",
          "type": "address"
        }
      ],
      "stateMutability": "view",
      "type": "function",
      "constant": true
    },
    {
      "inputs": [],
      "name": "rewardPerTokenStored",
      "outputs": [
        {
          "internalType": "uint256",
          "name": "",
          "type": "uint256"
        }
      ],
      "stateMutability": "view",
      "type": "function",
      "constant": true
    },
    {
      "inputs": [],
      "name": "rewardRate",
      "outputs": [
        {
          "internalType": "uint256",
          "name": "",
          "type": "uint256"
        }
      ],
      "stateMutability": "view",
      "type": "function",
      "constant": true
    },
    {
      "inputs": [
        {
          "internalType": "address",
          "name": "",
          "type": "address"
        }
      ],
      "name": "rewards",
      "outputs": [
        {
          "internalType": "uint256",
          "name": "",
          "type": "uint256"
        }
      ],
      "stateMutability": "view",
      "type": "function",
      "constant": true
    },
    {
      "inputs": [
        {
          "internalType": "address",
          "name": "_rewardDistribution",
          "type": "address"
        }
      ],
      "name": "setRewardDistribution",
      "outputs": [],
      "stateMutability": "nonpayable",
      "type": "function"
    },
    {
      "inputs": [],
      "name": "starttime",
      "outputs": [
        {
          "internalType": "uint256",
          "name": "",
          "type": "uint256"
        }
      ],
      "stateMutability": "view",
      "type": "function",
      "constant": true
    },
    {
      "inputs": [],
      "name": "totalSupply",
      "outputs": [
        {
          "internalType": "uint256",
          "name": "",
          "type": "uint256"
        }
      ],
      "stateMutability": "view",
      "type": "function",
      "constant": true
    },
    {
      "inputs": [
        {
          "internalType": "address",
          "name": "newOperator_",
          "type": "address"
        }
      ],
      "name": "transferOperator",
      "outputs": [],
      "stateMutability": "nonpayable",
      "type": "function"
    },
    {
      "inputs": [
        {
          "internalType": "address",
          "name": "newOwner",
          "type": "address"
        }
      ],
      "name": "transferOwnership",
      "outputs": [],
      "stateMutability": "nonpayable",
      "type": "function"
    },
    {
      "inputs": [
        {
          "internalType": "address",
          "name": "",
          "type": "address"
        }
      ],
      "name": "userRewardPerTokenPaid",
      "outputs": [
        {
          "internalType": "uint256",
          "name": "",
          "type": "uint256"
        }
      ],
      "stateMutability": "view",
      "type": "function",
      "constant": true
    },
    {
      "inputs": [],
      "name": "lastTimeRewardApplicable",
      "outputs": [
        {
          "internalType": "uint256",
          "name": "",
          "type": "uint256"
        }
      ],
      "stateMutability": "view",
      "type": "function",
      "constant": true
    },
    {
      "inputs": [],
      "name": "rewardPerToken",
      "outputs": [
        {
          "internalType": "uint256",
          "name": "",
          "type": "uint256"
        }
      ],
      "stateMutability": "view",
      "type": "function",
      "constant": true
    },
    {
      "inputs": [
        {
          "internalType": "address",
          "name": "account",
          "type": "address"
        }
      ],
      "name": "earned",
      "outputs": [
        {
          "internalType": "uint256",
          "name": "",
          "type": "uint256"
        }
      ],
      "stateMutability": "view",
      "type": "function",
      "constant": true
    },
    {
      "inputs": [
        {
          "internalType": "uint256",
          "name": "amount",
          "type": "uint256"
        }
      ],
      "name": "stake",
      "outputs": [],
      "stateMutability": "nonpayable",
      "type": "function"
    },
    {
      "inputs": [
        {
          "internalType": "uint256",
          "name": "amount",
          "type": "uint256"
        }
      ],
      "name": "withdraw",
      "outputs": [],
      "stateMutability": "nonpayable",
      "type": "function"
    },
    {
      "inputs": [],
      "name": "exit",
      "outputs": [],
      "stateMutability": "nonpayable",
      "type": "function"
    },
    {
      "inputs": [],
      "name": "stakeInBoardroom",
      "outputs": [],
      "stateMutability": "nonpayable",
      "type": "function"
    },
    {
      "inputs": [
        {
          "internalType": "uint256",
          "name": "reward",
          "type": "uint256"
        }
      ],
      "name": "notifyRewardAmount",
      "outputs": [],
      "stateMutability": "nonpayable",
      "type": "function"
    },
    {
      "inputs": [],
      "name": "burnRewards",
      "outputs": [],
      "stateMutability": "nonpayable",
      "type": "function"
    },
    {
      "inputs": [
        {
          "internalType": "uint256",
          "name": "amount",
          "type": "uint256"
        },
        {
          "internalType": "address",
          "name": "tokenAddress",
          "type": "address"
        },
        {
          "internalType": "address",
          "name": "sendTo",
          "type": "address"
        }
      ],
      "name": "cleanUpDust",
      "outputs": [],
      "stateMutability": "nonpayable",
      "type": "function"
    }
  ],
  "bytecode": "0x6080604052620d2f006008556000600a556000600b553480156200002257600080fd5b5060405162002df238038062002df2833981810160405260808110156200004857600080fd5b8101908080519060200190929190805190602001909291908051906020019092919080519060200190929190505050600062000089620002c860201b60201c565b9050806000806101000a81548173ffffffffffffffffffffffffffffffffffffffff021916908373ffffffffffffffffffffffffffffffffffffffff1602179055508073ffffffffffffffffffffffffffffffffffffffff16600073ffffffffffffffffffffffffffffffffffffffff167f8be0079c531659141344cd1fd0a4f28419497f9722a3daafe3b4186f6b6457e060405160405180910390a35062000137620002c860201b60201c565b600160006101000a81548173ffffffffffffffffffffffffffffffffffffffff021916908373ffffffffffffffffffffffffffffffffffffffff160217905550600160009054906101000a900473ffffffffffffffffffffffffffffffffffffffff1673ffffffffffffffffffffffffffffffffffffffff16600073ffffffffffffffffffffffffffffffffffffffff167f74da04524d50c64947f5dd5381ef1a4dca5cba8ed1d816243f9e48aa0b5617ed60405160405180910390a383600660006101000a81548173ffffffffffffffffffffffffffffffffffffffff021916908373ffffffffffffffffffffffffffffffffffffffff16021790555082600260006101000a81548173ffffffffffffffffffffffffffffffffffffffff021916908373ffffffffffffffffffffffffffffffffffffffff16021790555081600760006101000a81548173ffffffffffffffffffffffffffffffffffffffff021916908373ffffffffffffffffffffffffffffffffffffffff1602179055508060098190555050505050620002d0565b600033905090565b612b1280620002e06000396000f3fe608060405234801561001057600080fd5b50600436106101ef5760003560e01c8063715018a61161010f578063b7adb745116100a2578063e9fad8ee11610071578063e9fad8ee1461073a578063ebe2b12b14610744578063f2fde38b14610762578063fc7e286d146107a6576101ef565b8063b7adb745146106ac578063c8f33c91146106e0578063cd3daf9d146106fe578063df136d651461071c576101ef565b80638da58897116100de5780638da58897146105f85780638da5cb5b14610616578063a694fc3a1461064a578063b325bf3a14610678576101ef565b8063715018a61461055a5780637b0a47ee1461056457806380faa57d146105825780638b876347146105a0576101ef565b80632e1a7d4d116101875780635693b4b4116101565780635693b4b414610490578063570ca7351461049a5780635e02c51e146104ce57806370a0823114610502576101ef565b80632e1a7d4d1461040a57806334af1791146104385780633c6b16ab146104425780634456eda214610470576101ef565b8063101114cf116101c3578063101114cf1461035657806318160ddd1461038a5780631be05289146103a857806329605e77146103c6576101ef565b80628cc262146101f45780630700037d1461024c578063072071d1146102a45780630d68b76114610312575b600080fd5b6102366004803603602081101561020a57600080fd5b81019080803573ffffffffffffffffffffffffffffffffffffffff1690602001909291905050506107fe565b6040518082815260200191505060405180910390f35b61028e6004803603602081101561026257600080fd5b81019080803573ffffffffffffffffffffffffffffffffffffffff1690602001909291905050506108e5565b6040518082815260200191505060405180910390f35b610310600480360360608110156102ba57600080fd5b8101908080359060200190929190803573ffffffffffffffffffffffffffffffffffffffff169060200190929190803573ffffffffffffffffffffffffffffffffffffffff1690602001909291905050506108fd565b005b6103546004803603602081101561032857600080fd5b81019080803573ffffffffffffffffffffffffffffffffffffffff1690602001909291905050506109d3565b005b61035e610ac6565b604051808273ffffffffffffffffffffffffffffffffffffffff16815260200191505060405180910390f35b610392610aec565b6040518082815260200191505060405180910390f35b6103b0610af6565b6040518082815260200191505060405180910390f35b610408600480360360208110156103dc57600080fd5b81019080803573ffffffffffffffffffffffffffffffffffffffff169060200190929190505050610afc565b005b6104366004803603602081101561042057600080fd5b8101908080359060200190929190505050610bb7565b005b610440610e5c565b005b61046e6004803603602081101561045857600080fd5b81019080803590602001909291905050506111a8565b005b6104786114aa565b60405180821515815260200191505060405180910390f35b610498611509565b005b6104a261170a565b604051808273ffffffffffffffffffffffffffffffffffffffff16815260200191505060405180910390f35b6104d6611734565b604051808273ffffffffffffffffffffffffffffffffffffffff16815260200191505060405180910390f35b6105446004803603602081101561051857600080fd5b81019080803573ffffffffffffffffffffffffffffffffffffffff16906020019092919050505061175a565b6040518082815260200191505060405180910390f35b6105626117a3565b005b61056c611910565b6040518082815260200191505060405180910390f35b61058a611916565b6040518082815260200191505060405180910390f35b6105e2600480360360208110156105b657600080fd5b81019080803573ffffffffffffffffffffffffffffffffffffffff169060200190929190505050611929565b6040518082815260200191505060405180910390f35b610600611941565b6040518082815260200191505060405180910390f35b61061e611947565b604051808273ffffffffffffffffffffffffffffffffffffffff16815260200191505060405180910390f35b6106766004803603602081101561066057600080fd5b8101908080359060200190929190505050611970565b005b610680611c1b565b604051808273ffffffffffffffffffffffffffffffffffffffff16815260200191505060405180910390f35b6106b4611c41565b604051808273ffffffffffffffffffffffffffffffffffffffff16815260200191505060405180910390f35b6106e8611c67565b6040518082815260200191505060405180910390f35b610706611c6d565b6040518082815260200191505060405180910390f35b610724611d05565b6040518082815260200191505060405180910390f35b610742611d0b565b005b61074c611d26565b6040518082815260200191505060405180910390f35b6107a46004803603602081101561077857600080fd5b81019080803573ffffffffffffffffffffffffffffffffffffffff169060200190929190505050611d2c565b005b6107e8600480360360208110156107bc57600080fd5b81019080803573ffffffffffffffffffffffffffffffffffffffff169060200190929190505050611f1e565b6040518082815260200191505060405180910390f35b60006108de600f60008473ffffffffffffffffffffffffffffffffffffffff1673ffffffffffffffffffffffffffffffffffffffff168152602001908152602001600020546108d0670de0b6b3a76400006108c26108ab600e60008973ffffffffffffffffffffffffffffffffffffffff1673ffffffffffffffffffffffffffffffffffffffff1681526020019081526020016000205461089d611c6d565b611f3690919063ffffffff16565b6108b48861175a565b611fb990919063ffffffff16565b61203f90919063ffffffff16565b6120c890919063ffffffff16565b9050919050565b600f6020528060005260406000206000915090505481565b3373ffffffffffffffffffffffffffffffffffffffff16600160009054906101000a900473ffffffffffffffffffffffffffffffffffffffff1673ffffffffffffffffffffffffffffffffffffffff16146109a3576040517f08c379a0000000000000000000000000000000000000000000000000000000008152600401808060200182810382526024815260200180612a4b6024913960400191505060405180910390fd5b6109ce81848473ffffffffffffffffffffffffffffffffffffffff166121509092919063ffffffff16565b505050565b6109db6121f2565b73ffffffffffffffffffffffffffffffffffffffff166109f9611947565b73ffffffffffffffffffffffffffffffffffffffff1614610a82576040517f08c379a00000000000000000000000000000000000000000000000000000000081526004018080602001828103825260208152602001807f4f776e61626c653a2063616c6c6572206973206e6f7420746865206f776e657281525060200191505060405180910390fd5b80600560006101000a81548173ffffffffffffffffffffffffffffffffffffffff021916908373ffffffffffffffffffffffffffffffffffffffff16021790555050565b600560009054906101000a900473ffffffffffffffffffffffffffffffffffffffff1681565b6000600354905090565b60085481565b610b046121f2565b73ffffffffffffffffffffffffffffffffffffffff16610b22611947565b73ffffffffffffffffffffffffffffffffffffffff1614610bab576040517f08c379a00000000000000000000000000000000000000000000000000000000081526004018080602001828103825260208152602001807f4f776e61626c653a2063616c6c6572206973206e6f7420746865206f776e657281525060200191505060405180910390fd5b610bb4816121fa565b50565b33610bc0611c6d565b600d81905550610bce611916565b600c81905550600073ffffffffffffffffffffffffffffffffffffffff168173ffffffffffffffffffffffffffffffffffffffff1614610c9b57610c11816107fe565b600f60008373ffffffffffffffffffffffffffffffffffffffff1673ffffffffffffffffffffffffffffffffffffffff16815260200190815260200160002081905550600d54600e60008373ffffffffffffffffffffffffffffffffffffffff1673ffffffffffffffffffffffffffffffffffffffff168152602001908152602001600020819055505b600954421015610d13576040517f08c379a00000000000000000000000000000000000000000000000000000000081526004018080602001828103825260208152602001807f73686f72745374616b65616c555344506f6f6c3a206e6f74207374617274656481525060200191505060405180910390fd5b60008211610d6c576040517f08c379a0000000000000000000000000000000000000000000000000000000008152600401808060200182810382526026815260200180612a046026913960400191505060405180910390fd5b610dbe82601060003373ffffffffffffffffffffffffffffffffffffffff1673ffffffffffffffffffffffffffffffffffffffff16815260200190815260200160002054611f3690919063ffffffff16565b601060003373ffffffffffffffffffffffffffffffffffffffff1673ffffffffffffffffffffffffffffffffffffffff16815260200190815260200160002081905550610e0a8261231f565b3373ffffffffffffffffffffffffffffffffffffffff167f7084f5476618d8e60b11ef0d7d3f06914655adb8793e28ff7f018d4c76d505d5836040518082815260200191505060405180910390a25050565b33610e65611c6d565b600d81905550610e73611916565b600c81905550600073ffffffffffffffffffffffffffffffffffffffff168173ffffffffffffffffffffffffffffffffffffffff1614610f4057610eb6816107fe565b600f60008373ffffffffffffffffffffffffffffffffffffffff1673ffffffffffffffffffffffffffffffffffffffff16815260200190815260200160002081905550600d54600e60008373ffffffffffffffffffffffffffffffffffffffff1673ffffffffffffffffffffffffffffffffffffffff168152602001908152602001600020819055505b6000610f4b336107fe565b905060008111156111a4576000600f60003373ffffffffffffffffffffffffffffffffffffffff1673ffffffffffffffffffffffffffffffffffffffff16815260200190815260200160002081905550600660009054906101000a900473ffffffffffffffffffffffffffffffffffffffff1673ffffffffffffffffffffffffffffffffffffffff1663095ea7b3600760009054906101000a900473ffffffffffffffffffffffffffffffffffffffff16836040518363ffffffff1660e01b8152600401808373ffffffffffffffffffffffffffffffffffffffff16815260200182815260200192505050602060405180830381600087803b15801561105057600080fd5b505af1158015611064573d6000803e3d6000fd5b505050506040513d602081101561107a57600080fd5b810190808051906020019092919050505050600760009054906101000a900473ffffffffffffffffffffffffffffffffffffffff1673ffffffffffffffffffffffffffffffffffffffff1663198f65bf3330846040518463ffffffff1660e01b8152600401808473ffffffffffffffffffffffffffffffffffffffff1681526020018373ffffffffffffffffffffffffffffffffffffffff1681526020018281526020019350505050600060405180830381600087803b15801561113d57600080fd5b505af1158015611151573d6000803e3d6000fd5b505050503373ffffffffffffffffffffffffffffffffffffffff167fe2403640ba68fed3a2f88b7557551d1993f84b99bb10ff833f0cf8db0c5e0486826040518082815260200191505060405180910390a25b5050565b600560009054906101000a900473ffffffffffffffffffffffffffffffffffffffff1673ffffffffffffffffffffffffffffffffffffffff166111e96121f2565b73ffffffffffffffffffffffffffffffffffffffff1614611255576040517f08c379a0000000000000000000000000000000000000000000000000000000008152600401808060200182810382526021815260200180612a6f6021913960400191505060405180910390fd5b600061125f611c6d565b600d8190555061126d611916565b600c81905550600073ffffffffffffffffffffffffffffffffffffffff168173ffffffffffffffffffffffffffffffffffffffff161461133a576112b0816107fe565b600f60008373ffffffffffffffffffffffffffffffffffffffff1673ffffffffffffffffffffffffffffffffffffffff16815260200190815260200160002081905550600d54600e60008373ffffffffffffffffffffffffffffffffffffffff1673ffffffffffffffffffffffffffffffffffffffff168152602001908152602001600020819055505b60095442111561142d57600a54421061136d576113626008548361203f90919063ffffffff16565b600b819055506113cf565b600061138442600a54611f3690919063ffffffff16565b9050600061139d600b5483611fb990919063ffffffff16565b90506113c66008546113b883876120c890919063ffffffff16565b61203f90919063ffffffff16565b600b8190555050505b42600c819055506113eb600854426120c890919063ffffffff16565b600a819055507fde88a922e0d3b88b24e9623efeb464919c6bf9f66857a65e2bfcf2ce87a9433d826040518082815260200191505060405180910390a16114a6565b6114426008548361203f90919063ffffffff16565b600b81905550600954600c819055506114686008546009546120c890919063ffffffff16565b600a819055507fde88a922e0d3b88b24e9623efeb464919c6bf9f66857a65e2bfcf2ce87a9433d826040518082815260200191505060405180910390a15b5050565b6000600160009054906101000a900473ffffffffffffffffffffffffffffffffffffffff1673ffffffffffffffffffffffffffffffffffffffff166114ed6121f2565b73ffffffffffffffffffffffffffffffffffffffff1614905090565b6115116121f2565b73ffffffffffffffffffffffffffffffffffffffff1661152f611947565b73ffffffffffffffffffffffffffffffffffffffff16146115b8576040517f08c379a00000000000000000000000000000000000000000000000000000000081526004018080602001828103825260208152602001807f4f776e61626c653a2063616c6c6572206973206e6f7420746865206f776e657281525060200191505060405180910390fd5b600660009054906101000a900473ffffffffffffffffffffffffffffffffffffffff1673ffffffffffffffffffffffffffffffffffffffff166342966c68600660009054906101000a900473ffffffffffffffffffffffffffffffffffffffff1673ffffffffffffffffffffffffffffffffffffffff166370a08231306040518263ffffffff1660e01b8152600401808273ffffffffffffffffffffffffffffffffffffffff16815260200191505060206040518083038186803b15801561167f57600080fd5b505afa158015611693573d6000803e3d6000fd5b505050506040513d60208110156116a957600080fd5b81019080805190602001909291905050506040518263ffffffff1660e01b815260040180828152602001915050600060405180830381600087803b1580156116f057600080fd5b505af1158015611704573d6000803e3d6000fd5b50505050565b6000600160009054906101000a900473ffffffffffffffffffffffffffffffffffffffff16905090565b600760009054906101000a900473ffffffffffffffffffffffffffffffffffffffff1681565b6000600460008373ffffffffffffffffffffffffffffffffffffffff1673ffffffffffffffffffffffffffffffffffffffff168152602001908152602001600020549050919050565b6117ab6121f2565b73ffffffffffffffffffffffffffffffffffffffff166117c9611947565b73ffffffffffffffffffffffffffffffffffffffff1614611852576040517f08c379a00000000000000000000000000000000000000000000000000000000081526004018080602001828103825260208152602001807f4f776e61626c653a2063616c6c6572206973206e6f7420746865206f776e657281525060200191505060405180910390fd5b600073ffffffffffffffffffffffffffffffffffffffff1660008054906101000a900473ffffffffffffffffffffffffffffffffffffffff1673ffffffffffffffffffffffffffffffffffffffff167f8be0079c531659141344cd1fd0a4f28419497f9722a3daafe3b4186f6b6457e060405160405180910390a360008060006101000a81548173ffffffffffffffffffffffffffffffffffffffff021916908373ffffffffffffffffffffffffffffffffffffffff160217905550565b600b5481565b600061192442600a5461241f565b905090565b600e6020528060005260406000206000915090505481565b60095481565b60008060009054906101000a900473ffffffffffffffffffffffffffffffffffffffff16905090565b33611979611c6d565b600d81905550611987611916565b600c81905550600073ffffffffffffffffffffffffffffffffffffffff168173ffffffffffffffffffffffffffffffffffffffff1614611a54576119ca816107fe565b600f60008373ffffffffffffffffffffffffffffffffffffffff1673ffffffffffffffffffffffffffffffffffffffff16815260200190815260200160002081905550600d54600e60008373ffffffffffffffffffffffffffffffffffffffff1673ffffffffffffffffffffffffffffffffffffffff168152602001908152602001600020819055505b600954421015611acc576040517f08c379a00000000000000000000000000000000000000000000000000000000081526004018080602001828103825260208152602001807f73686f72745374616b65616c555344506f6f6c3a206e6f74207374617274656481525060200191505060405180910390fd5b60008211611b25576040517f08c379a0000000000000000000000000000000000000000000000000000000008152600401808060200182810382526023815260200180612aba6023913960400191505060405180910390fd5b6000611b7983601060003373ffffffffffffffffffffffffffffffffffffffff1673ffffffffffffffffffffffffffffffffffffffff168152602001908152602001600020546120c890919063ffffffff16565b905080601060003373ffffffffffffffffffffffffffffffffffffffff1673ffffffffffffffffffffffffffffffffffffffff16815260200190815260200160002081905550611bc883612438565b3373ffffffffffffffffffffffffffffffffffffffff167f9e71bc8eea02a63969f509818f2dafb9254532904319f9dbda79b67bd34a5f3d846040518082815260200191505060405180910390a2505050565b600660009054906101000a900473ffffffffffffffffffffffffffffffffffffffff1681565b600260009054906101000a900473ffffffffffffffffffffffffffffffffffffffff1681565b600c5481565b600080611c78610aec565b1415611c8857600d549050611d02565b611cff611cee611c96610aec565b611ce0670de0b6b3a7640000611cd2600b54611cc4600c54611cb6611916565b611f3690919063ffffffff16565b611fb990919063ffffffff16565b611fb990919063ffffffff16565b61203f90919063ffffffff16565b600d546120c890919063ffffffff16565b90505b90565b600d5481565b611d1c611d173361175a565b610bb7565b611d24610e5c565b565b600a5481565b611d346121f2565b73ffffffffffffffffffffffffffffffffffffffff16611d52611947565b73ffffffffffffffffffffffffffffffffffffffff1614611ddb576040517f08c379a00000000000000000000000000000000000000000000000000000000081526004018080602001828103825260208152602001807f4f776e61626c653a2063616c6c6572206973206e6f7420746865206f776e657281525060200191505060405180910390fd5b600073ffffffffffffffffffffffffffffffffffffffff168173ffffffffffffffffffffffffffffffffffffffff161415611e61576040517f08c379a000000000000000000000000000000000000000000000000000000000815260040180806020018281038252602681526020018061298b6026913960400191505060405180910390fd5b8073ffffffffffffffffffffffffffffffffffffffff1660008054906101000a900473ffffffffffffffffffffffffffffffffffffffff1673ffffffffffffffffffffffffffffffffffffffff167f8be0079c531659141344cd1fd0a4f28419497f9722a3daafe3b4186f6b6457e060405160405180910390a3806000806101000a81548173ffffffffffffffffffffffffffffffffffffffff021916908373ffffffffffffffffffffffffffffffffffffffff16021790555050565b60106020528060005260406000206000915090505481565b600082821115611fae576040517f08c379a000000000000000000000000000000000000000000000000000000000815260040180806020018281038252601e8152602001807f536166654d6174683a207375627472616374696f6e206f766572666c6f77000081525060200191505060405180910390fd5b818303905092915050565b600080831415611fcc5760009050612039565b6000828402905082848281611fdd57fe5b0414612034576040517f08c379a0000000000000000000000000000000000000000000000000000000008152600401808060200182810382526021815260200180612a2a6021913960400191505060405180910390fd5b809150505b92915050565b60008082116120b6576040517f08c379a000000000000000000000000000000000000000000000000000000000815260040180806020018281038252601a8152602001807f536166654d6174683a206469766973696f6e206279207a65726f00000000000081525060200191505060405180910390fd5b8183816120bf57fe5b04905092915050565b600080828401905083811015612146576040517f08c379a000000000000000000000000000000000000000000000000000000000815260040180806020018281038252601b8152602001807f536166654d6174683a206164646974696f6e206f766572666c6f77000000000081525060200191505060405180910390fd5b8091505092915050565b6121ed8363a9059cbb60e01b8484604051602401808373ffffffffffffffffffffffffffffffffffffffff16815260200182815260200192505050604051602081830303815290604052907bffffffffffffffffffffffffffffffffffffffffffffffffffffffff19166020820180517bffffffffffffffffffffffffffffffffffffffffffffffffffffffff838183161783525050505061253a565b505050565b600033905090565b600073ffffffffffffffffffffffffffffffffffffffff168173ffffffffffffffffffffffffffffffffffffffff161415612280576040517f08c379a000000000000000000000000000000000000000000000000000000000815260040180806020018281038252602d8152602001806129d7602d913960400191505060405180910390fd5b8073ffffffffffffffffffffffffffffffffffffffff16600073ffffffffffffffffffffffffffffffffffffffff167f74da04524d50c64947f5dd5381ef1a4dca5cba8ed1d816243f9e48aa0b5617ed60405160405180910390a380600160006101000a81548173ffffffffffffffffffffffffffffffffffffffff021916908373ffffffffffffffffffffffffffffffffffffffff16021790555050565b61233481600354611f3690919063ffffffff16565b60038190555061238c81600460003373ffffffffffffffffffffffffffffffffffffffff1673ffffffffffffffffffffffffffffffffffffffff16815260200190815260200160002054611f3690919063ffffffff16565b600460003373ffffffffffffffffffffffffffffffffffffffff1673ffffffffffffffffffffffffffffffffffffffff1681526020019081526020016000208190555061241c3382600260009054906101000a900473ffffffffffffffffffffffffffffffffffffffff1673ffffffffffffffffffffffffffffffffffffffff166121509092919063ffffffff16565b50565b600081831061242e5781612430565b825b905092915050565b61244d816003546120c890919063ffffffff16565b6003819055506124a581600460003373ffffffffffffffffffffffffffffffffffffffff1673ffffffffffffffffffffffffffffffffffffffff168152602001908152602001600020546120c890919063ffffffff16565b600460003373ffffffffffffffffffffffffffffffffffffffff1673ffffffffffffffffffffffffffffffffffffffff16815260200190815260200160002081905550612537333083600260009054906101000a900473ffffffffffffffffffffffffffffffffffffffff1673ffffffffffffffffffffffffffffffffffffffff16612629909392919063ffffffff16565b50565b606061259c826040518060400160405280602081526020017f5361666545524332303a206c6f772d6c6576656c2063616c6c206661696c65648152508573ffffffffffffffffffffffffffffffffffffffff166126ea9092919063ffffffff16565b9050600081511115612624578080602001905160208110156125bd57600080fd5b8101908080519060200190929190505050612623576040517f08c379a000000000000000000000000000000000000000000000000000000000815260040180806020018281038252602a815260200180612a90602a913960400191505060405180910390fd5b5b505050565b6126e4846323b872dd60e01b858585604051602401808473ffffffffffffffffffffffffffffffffffffffff1681526020018373ffffffffffffffffffffffffffffffffffffffff1681526020018281526020019350505050604051602081830303815290604052907bffffffffffffffffffffffffffffffffffffffffffffffffffffffff19166020820180517bffffffffffffffffffffffffffffffffffffffffffffffffffffffff838183161783525050505061253a565b50505050565b60606126f98484600085612702565b90509392505050565b60608247101561275d576040517f08c379a00000000000000000000000000000000000000000000000000000000081526004018080602001828103825260268152602001806129b16026913960400191505060405180910390fd5b612766856128ab565b6127d8576040517f08c379a000000000000000000000000000000000000000000000000000000000815260040180806020018281038252601d8152602001807f416464726573733a2063616c6c20746f206e6f6e2d636f6e747261637400000081525060200191505060405180910390fd5b600060608673ffffffffffffffffffffffffffffffffffffffff1685876040518082805190602001908083835b602083106128285780518252602082019150602081019050602083039250612805565b6001836020036101000a03801982511681845116808217855250505050505090500191505060006040518083038185875af1925050503d806000811461288a576040519150601f19603f3d011682016040523d82523d6000602084013e61288f565b606091505b509150915061289f8282866128be565b92505050949350505050565b600080823b905060008111915050919050565b606083156128ce57829050612983565b6000835111156128e15782518084602001fd5b816040517f08c379a00000000000000000000000000000000000000000000000000000000081526004018080602001828103825283818151815260200191508051906020019080838360005b8381101561294857808201518184015260208101905061292d565b50505050905090810190601f1680156129755780820380516001836020036101000a031916815260200191505b509250505060405180910390fd5b939250505056fe4f776e61626c653a206e6577206f776e657220697320746865207a65726f2061646472657373416464726573733a20696e73756666696369656e742062616c616e636520666f722063616c6c6f70657261746f723a207a65726f206164647265737320676976656e20666f72206e6577206f70657261746f7273686f72745374616b65616c555344506f6f6c3a2043616e6e6f742077697468647261772030536166654d6174683a206d756c7469706c69636174696f6e206f766572666c6f776f70657261746f723a2063616c6c6572206973206e6f7420746865206f70657261746f7243616c6c6572206973206e6f742072657761726420646973747269627574696f6e5361666545524332303a204552433230206f7065726174696f6e20646964206e6f74207375636365656473686f72745374616b65616c555344506f6f6c3a2043616e6e6f74207374616b652030a26469706673582212207fba55aa070fdad589bc93cea97ab54e5583c1719d63d0b2e22320b7962aa80b64736f6c63430007000033",
  "immutableReferences": {},
  "source": "pragma solidity ^0.7.0;\r\n/**\r\n *Submitted for verification at Etherscan.io on 2020-07-17\r\n */\r\n\r\n/*\r\n   ____            __   __        __   _\r\n  / __/__ __ ___  / /_ / /  ___  / /_ (_)__ __\r\n _\\ \\ / // // _ \\/ __// _ \\/ -_)/ __// / \\ \\ /\r\n/___/ \\_, //_//_/\\__//_//_/\\__/ \\__//_/ /_\\_\\\r\n     /___/\r\n\r\n* Synthetix: KBTCRewards.sol\r\n*\r\n* Docs: https://docs.synthetix.io/\r\n*\r\n*\r\n* MIT License\r\n* ===========\r\n*\r\n* Copyright (c) 2020 Synthetix\r\n*\r\n* Permission is hereby granted, free of charge, to any person obtaining a copy\r\n* of this software and associated documentation files (the \"Software\"), to deal\r\n* in the Software without restriction, including without limitation the rights\r\n* to use, copy, modify, merge, publish, distribute, sublicense, and/or sell\r\n* copies of the Software, and to permit persons to whom the Software is\r\n* furnished to do so, subject to the following conditions:\r\n*\r\n* The above copyright notice and this permission notice shall be included in all\r\n* copies or substantial portions of the Software.\r\n*\r\n* THE SOFTWARE IS PROVIDED \"AS IS\", WITHOUT WARRANTY OF ANY KIND, EXPRESS OR\r\n* IMPLIED, INCLUDING BUT NOT LIMITED TO THE WARRANTIES OF MERCHANTABILITY,\r\n* FITNESS FOR A PARTICULAR PURPOSE AND NONINFRINGEMENT. IN NO EVENT SHALL THE\r\n* AUTHORS OR COPYRIGHT HOLDERS BE LIABLE FOR ANY CLAIM, DAMAGES OR OTHER\r\n* LIABILITY, WHETHER IN AN ACTION OF CONTRACT, TORT OR OTHERWISE, ARISING FROM,\r\n* OUT OF OR IN CONNECTION WITH THE SOFTWARE OR THE USE OR OTHER DEALINGS IN THE\r\n*/\r\n\r\n// File: @openzeppelin/contracts/math/Math.sol\r\n\r\nimport '@openzeppelin/contracts/math/Math.sol';\r\n\r\n// File: @openzeppelin/contracts/math/SafeMath.sol\r\n\r\nimport '@openzeppelin/contracts/math/SafeMath.sol';\r\n\r\n// File: @openzeppelin/contracts/token/ERC20/IERC20.sol\r\n\r\nimport '@openzeppelin/contracts/token/ERC20/IERC20.sol';\r\n\r\n// File: @openzeppelin/contracts/utils/Address.sol\r\n\r\nimport '@openzeppelin/contracts/utils/Address.sol';\r\n\r\n// File: @openzeppelin/contracts/token/ERC20/SafeERC20.sol\r\n\r\nimport '@openzeppelin/contracts/token/ERC20/SafeERC20.sol';\r\n\r\n// File: contracts/IRewardDistributionRecipient.sol\r\n\r\nimport './interfaces/IBasisAsset.sol';\r\nimport './interfaces/IRewardDistributionRecipient.sol';\r\nimport './interfaces/IBoardroom.sol';\r\nimport './utils/Operator.sol';\r\n\r\ncontract alUSDWrapper is Operator {\r\n    using SafeMath for uint256;\r\n    using SafeERC20 for IERC20;\r\n\r\n    //0xbc6da0fe9ad5f3b0d58160288917aa56653660e9\r\n    IERC20 public alUSD;\r\n\r\n    uint256 private _totalSupply;\r\n    mapping(address => uint256) private _balances;\r\n\r\n    function totalSupply() public view returns (uint256) {\r\n        return _totalSupply;\r\n    }\r\n\r\n    function balanceOf(address account) public view returns (uint256) {\r\n        return _balances[account];\r\n    }\r\n\r\n    function stake(uint256 amount) public virtual {\r\n        _totalSupply = _totalSupply.add(amount);\r\n        _balances[msg.sender] = _balances[msg.sender].add(amount);\r\n        alUSD.safeTransferFrom(msg.sender, address(this), amount);\r\n    }\r\n\r\n    function withdraw(uint256 amount) public virtual {\r\n        _totalSupply = _totalSupply.sub(amount);\r\n        _balances[msg.sender] = _balances[msg.sender].sub(amount);\r\n        alUSD.safeTransfer(msg.sender, amount);\r\n    }\r\n}\r\n\r\ncontract shortStakealUSDPool is alUSDWrapper, IRewardDistributionRecipient {\r\n    using SafeMath for uint256;\r\n    using SafeERC20 for IERC20;\r\n\r\n    IERC20 public LIFT;\r\n    address public boardroom;\r\n    \r\n    uint256 public DURATION = 10 days;\r\n\r\n    uint256 public starttime;\r\n    uint256 public periodFinish = 0;\r\n    uint256 public rewardRate = 0;\r\n    uint256 public lastUpdateTime;\r\n    uint256 public rewardPerTokenStored;\r\n    mapping(address => uint256) public userRewardPerTokenPaid;\r\n    mapping(address => uint256) public rewards;\r\n    mapping(address => uint256) public deposits;\r\n\r\n    event RewardAdded(uint256 reward);\r\n    event Staked(address indexed user, uint256 amount);\r\n    event Withdrawn(address indexed user, uint256 amount);\r\n    event RewardPaid(address indexed user, uint256 reward);\r\n\r\n    constructor(\r\n        address _LIFT,\r\n        address _alUSD,\r\n        address _boardroom,\r\n        uint256 _starttime\r\n    ) public {\r\n        LIFT = IERC20(_LIFT);\r\n        alUSD = IERC20(_alUSD);\r\n        boardroom = _boardroom;\r\n        starttime = _starttime;\r\n    }\r\n\r\n    modifier checkStart() {\r\n        require(block.timestamp >= starttime, 'shortStakealUSDPool: not started');\r\n        _;\r\n    }\r\n\r\n    modifier updateReward(address account) {\r\n        rewardPerTokenStored = rewardPerToken();\r\n        lastUpdateTime = lastTimeRewardApplicable();\r\n        if (account != address(0)) {\r\n            rewards[account] = earned(account);\r\n            userRewardPerTokenPaid[account] = rewardPerTokenStored;\r\n        }\r\n        _;\r\n    }\r\n\r\n    function lastTimeRewardApplicable() public view returns (uint256) {\r\n        return Math.min(block.timestamp, periodFinish);\r\n    }\r\n\r\n    function rewardPerToken() public view returns (uint256) {\r\n        if (totalSupply() == 0) {\r\n            return rewardPerTokenStored;\r\n        }\r\n        return\r\n            rewardPerTokenStored.add(\r\n                lastTimeRewardApplicable()\r\n                    .sub(lastUpdateTime)\r\n                    .mul(rewardRate)\r\n                    .mul(1e18)\r\n                    .div(totalSupply())\r\n            );\r\n    }\r\n\r\n    function earned(address account) public view returns (uint256) {\r\n        return\r\n            balanceOf(account)\r\n                .mul(rewardPerToken().sub(userRewardPerTokenPaid[account]))\r\n                .div(1e18)\r\n                .add(rewards[account]);\r\n    }\r\n\r\n    // stake visibility is public as overriding LPTokenWrapper's stake() function\r\n    function stake(uint256 amount)\r\n        public\r\n        override\r\n        updateReward(msg.sender)\r\n        checkStart\r\n    {\r\n        require(amount > 0, 'shortStakealUSDPool: Cannot stake 0');\r\n        uint256 newDeposit = deposits[msg.sender].add(amount);\r\n        deposits[msg.sender] = newDeposit;\r\n        super.stake(amount);\r\n        emit Staked(msg.sender, amount);\r\n    }\r\n\r\n    function withdraw(uint256 amount)\r\n        public\r\n        override\r\n        updateReward(msg.sender)\r\n        checkStart\r\n    {\r\n        require(amount > 0, 'shortStakealUSDPool: Cannot withdraw 0');\r\n        deposits[msg.sender] = deposits[msg.sender].sub(amount);\r\n        super.withdraw(amount);\r\n        emit Withdrawn(msg.sender, amount);\r\n    }\r\n\r\n    function exit() external {\r\n        withdraw(balanceOf(msg.sender));\r\n        stakeInBoardroom();\r\n    }\r\n\r\n\r\n    function stakeInBoardroom() public updateReward(msg.sender) {\r\n        uint256 reward = earned(msg.sender);\r\n        if (reward > 0) {\r\n            rewards[msg.sender] = 0;\r\n\r\n            IERC20(LIFT).approve(boardroom, reward);\r\n            IBoardroom(boardroom).stakeShareForThirdParty(msg.sender, address(this), reward);\r\n            emit RewardPaid(msg.sender, reward);\r\n        }\r\n    }\r\n\r\n    function notifyRewardAmount(uint256 reward)\r\n        external\r\n        override\r\n        onlyRewardDistribution\r\n        updateReward(address(0))\r\n    {\r\n        if (block.timestamp > starttime) {\r\n            if (block.timestamp >= periodFinish) {\r\n                rewardRate = reward.div(DURATION);\r\n            } else {\r\n                uint256 remaining = periodFinish.sub(block.timestamp);\r\n                uint256 leftover = remaining.mul(rewardRate);\r\n                rewardRate = reward.add(leftover).div(DURATION);\r\n            }\r\n            lastUpdateTime = block.timestamp;\r\n            periodFinish = block.timestamp.add(DURATION);\r\n            emit RewardAdded(reward);\r\n        } else {\r\n            rewardRate = reward.div(DURATION);\r\n            lastUpdateTime = starttime;\r\n            periodFinish = starttime.add(DURATION);\r\n            emit RewardAdded(reward);\r\n        }\r\n    }\r\n\r\n    //EVERY PROJECT I HAVE SEEN HAS A NEED TO NUKE THEIR LP AT SOME POINT\r\n    function burnRewards() external onlyOwner\r\n    {\r\n         IBasisAsset(address(LIFT)).burn(IERC20(LIFT).balanceOf(address(this)));\r\n    }\r\n\r\n    // If anyone sends tokens directly to the contract we can refund them.\r\n    function cleanUpDust(uint256 amount, address tokenAddress, address sendTo) onlyOperator public  {     \r\n            IERC20(tokenAddress).safeTransfer(sendTo, amount);\r\n    }\r\n}\r\n",
  "sourcePath": "C:/Coding/LIFT-SingleStake/contracts/shortStakealUSDPool.sol",
  "compiler": {
    "name": "solc",
    "version": "0.7.0+commit.9e61f92b.Emscripten.clang"
  },
  "schemaVersion": "3.4.0",
  "updatedAt": "2021-04-30T02:03:21.559Z",
  "networkType": "ethereum",
  "devdoc": {
    "kind": "dev",
    "methods": {
      "owner()": {
        "details": "Returns the address of the current owner."
      },
      "renounceOwnership()": {
        "details": "Leaves the contract without owner. It will not be possible to call `onlyOwner` functions anymore. Can only be called by the current owner. NOTE: Renouncing ownership will leave the contract without an owner, thereby removing any functionality that is only available to the owner."
      },
      "transferOwnership(address)": {
        "details": "Transfers ownership of the contract to a new account (`newOwner`). Can only be called by the current owner."
      }
    },
    "version": 1
  },
  "userdoc": {
    "kind": "user",
    "methods": {},
    "version": 1
  }
}